:100000000100000000000000000200000447BA08E0
:100010001CF09FE51CF09FE51CF09FE51CF09FE5A0
:100020001CF09FE51CF09FE51CF09FE51CF09FE590
:100030000C450E2320A80200F8A70200FCA702002E
:1000400000A8020004A8020008A802000CA80200F0
:1000500019A80200000000EAF0A800EA28008FE2D8
:10006000000C90E800A08AE000B08BE001704AE24A
:100070000B005AE1E9A8000A0F00BAE814E04FE2C9
:10008000010013E303F0471013FF2FE1DCBF020070
:100090002CC002000030A0E30040A0E30050A0E329
:1000A0000060A0E3102052E27800A128FCFFFF8A44
:1000B000822EB0E13000A128003081451EFF2FE1E3
:1000C00004309FE503308FE013FF2FE115A60200F7
:1000D000F8B5050001F0FBFA0027FF43002804D122
:1000E000686901F099FD00282DD02A8950194179BD
:1000F00003790906091419430C180E3288180606EC
:10010000360E280001F0D6FA002807D1617D227D45
:100110000802083610433606360E03E0607B217B6A
:100120000002084301F0AAFA00280CD02200A11D09
:1001300028002E8101F002FF002804D0280000F0E2
:100140008AFA0020F8BD3800F8BD00207047000092
:10015000324810B504684068042B01D14C6102E0BC
:10016000012B02D14C612AF026EC002010BD70B5A5
:100170000C002A4D1600052B16D120890019C178D4
:1001800082780802104303D1200000F064FA04E0F2
:100190002000FFF79DFF002801D1012070BD320033
:1001A0002100286805230DE0032B06D1200001F073
:1001B0007EFA32002100032304E0022B04D1A86858
:1001C000320021002AF0F6EB002070BD70B500F07F
:1001D0007CF8124C0500206800280CD101F071FA5F
:1001E00020600F4A2021A0602AF0E8EB0D4A6068E9
:1001F00020212AF0E4EB280000F06CF870BD70B507
:10020000040000F062F8050001202073242C2FB6B2
:1002100001000000FC01000000020000C092652304
:1002200020002AF0DAEB280000F05EF870BD000034
:10023000B0C00200410100005F01000010B52AF0CB
:1002400054EB2AF0CEEB002010BDD34810B5006867
:1002500000022BD5D14AD24B0020C11C09015161AB
:10026000146981005C50041D240154611469C9188B
:10027000801C0C284C60F0DBFF21CA4B2D3102E0C2
:10028000401C8842FCDB18780028F9D0C648506131
:10029000C6481061012040035061C5481061C24842
:1002A000E038506105201061012010BDFEE7BD4916
:1002B00010B548602AF098EB10BD202800D3FEE767
:1002C000BC4A80001358002B00D0FEE711500020DC
:1002D0007047B84A00218000115008007047802004
:1002E00010B52AF086EB10BD10B52AF082EB10BDD8
:1002F00002688368C1681000184770B5052804D2E9
:10030000AD4D84002B59002B01D0012070BD2C2352
:10031000A94E4343DC3E9B192B5135000401F035B7
:1003200028516019C260816000214160A3491961B0
:100330005861002070BDFEB50E001700052815D2CB
:100340009D4902011431551869689B4B84000029AE
:100350000DD1012201970096029218594369026952
:100360002AF04AEB002801D101206860FEBD18592F
:100370001D002AF046EB28593A0031002AF044EBE0
:1003800028592AF046EBFEBD10B504002AF044EBD4
:10039000206010BD70B58A4D6C6AE00705D02AF068
:1003A00040EB02F051FEA8176862864EA0070CD5FC
:1003B000A86A02218843A8622020F060491F696270
:1003C000B1680143B16002F037FE600705D5A86A45
:1003D00004218843A86202F0E7FD20070AD5A86A35
:1003E00008218843A8628020F060C9436962B1682F
:1003F0000143B160012070BD724870B504686D4E54
:10040000A10706D500210161B26D012090470220AD
:1004100084432006000F03D0E0208443A848AA2983
:1004200001000000F803000000020000347ADB9EA7
:100430001020044300250AE0E00706D0A800325847
:10044000002A02D021002800904764086D1C002C6F
:10045000F2D1002070BD614810B50068002802D0BC
:1004600000212AF0ECEA012010BD70B501245A4D9C
:100470008440EC6014F006FDA8682043A8600120C9
:1004800070BD55480121C90310B5C160544A136AB3
:10049000534C0023403C2360136282680A4382600D
:1004A000012010BD4C480121090410B5C1604C4A1F
:1004B000536A4B4C0023403C6360536282680A439A
:1004C0008260012010BDF8B5464DEC68E00702D00F
:1004D000A817E8600440200606D58020C043E860E5
:1004E000802084432AF0AEEA200407D50126F603D3
:1004F00030002AF0A8EAF043E860B4436003400FFC
:1005000006D00720000421000140C943E96084436C
:10051000200307D50126F604300001F04DFEF0431C
:10052000E860B443E000400F09D00727BF0626006B
:100530003E40300001F0DEFDF043E860BC43E006E1
:100540000FD51020C043E8601020844301F030FF35
:10055000002806D006F0E9F9002802D0102001F0AA
:1005600029FD600003D52048E860C0438443A00013
:1005700003D51E48E860C0438443002C05DA0120FF
:10058000C00701F0E1FD1A48E860134881680122C4
:10059000920511438160F8BD0F4B0122920510B501
:1005A000DA60FFF790FF012010BD000000310080ED
:1005B0008029008040DD00C000000004F020000021
:1005C000FF0C0000070080FF740C000438040004D6
:1005D000CD0200000034008000300080B0C0020076
:1005E00080E8008080220080FFFFFFBFFFFFFFDF69
:1005F000FFFFFF7F10B50400002A03D020002AF07F
:1006000026EA00E00024200010BD7CB50C00150097
:10061000497923790906091419430B19818842691C
:100620002433602914D9603920328180A9F370D82D
:1006300001000000F4050000000200002D8205EE1C
:10064000517EC906CA0F00922A0001A92AF00CEABD
:10065000A071000AE0710198001B2071000A60710E
:1006600001207CBD00207CBD30B50400202020810D
:1006700065692018AD7A05706469E47A4470017187
:10068000090A4171110A8271C171190A8370C1701E
:1006900030BD002810B507D00169002905D1418976
:1006A000C088032206F010FA10BD2AF0AAE910BD96
:1006B000FEB5040000200290019020890125071951
:1006C000B8782E000007800F022800D00026A088EE
:1006D000002867D006F02FFF002864D038002AF0E9
:1006E000C8E9002857D1002E12D001222000694607
:1006F00007F04DF900280BD00098002800D0012009
:10070000002848D000214F2006F09DFD029008E00F
:10071000200001A907F02DF8002800D001200028B2
:1007200039D006F008FF002845D0FF4F3D610DF09D
:10073000FFFB0DF0DEFA00280BD10DF0C2FD002802
:1007400007D1FA490860FA4908800320BD700DF00E
:10075000A0FB0299FF2006F00EFFF64D2888002826
:1007600004D0F54904200856401C09D00225012078
:1007700002F090FB6D1E08D0387A0028F7D104E013
:1007800006F09DFE0020288038721C200DF081FBB1
:100790000020F8600FE06B46187900280BD1A0808C
:1007A00020202073FEBD002EFCD0022220006946CE
:1007B00007F0EDF801E0002EF4D00DF0AEFA0028BD
:1007C000F0D0A0880028EDD00BF0CBFE0028E9D1B6
:1007D0000BF0B1FE0028E5D120890019C178CA07C5
:1007E00001D1801D00E01230D44A137D002B0ED0C1
:1007F000128A092A0BD10078C00708D0880602D5D2
:100800000DF0DBFBFEBD1A200DF043FBFEBD0DF02D
:10081000BDFBFEBDF7B50022070048780E00097841
:1008200005020D432035280032300104C448090C6C
:100830002AF022E9040020D0280012307F3A9CFFE1
:1008400001000000F007000000020000D96ABB535D
:10085000A08067612027E019122127812AF01AE978
:100860002B04029A1B0C12212000FFF707FF3220F5
:10087000208120182A0031002AF010E92000FFF71B
:1008800021FFA088002804D12000FFF70CFF0020E2
:10089000FEBD27810DF060FA002802D005200DF082
:1008A00002FBFFF73AFDAD4B0500AB4821001C6889
:1008B000002200680523A0472800FFF733FD012030
:1008C000FEBDFFB50120904083B0039F0406240EB7
:1008D000FF37813738790E00150020422FD1FF22D3
:1008E0009132462301A902A806F095FC002826D0E3
:1008F0003879172120433871019C103420002AF0E8
:10090000CAE80698002801D1052000E00D20607299
:1009100025722000627A0C990A302AF0C0E8310072
:1009200006220C31A01C2AF0BAE8607A01990A303C
:100930008872000AC8720299039806F033FC07B067
:10094000F0BD1A0075E68288602A10D9603A82806C
:1009500048790A7900060014104324300871000A0F
:100960004871E62088710020C8710120704700207E
:1009700070471FB501AA0400009202AA03AB0DF054
:10098000F6FF0198020402981214010409142000D1
:100990000EF058F920000399C030418201998182FC
:1009A0000299C182200007F046FB1FBDF1B500246B
:1009B0002600250086B004F0E1FE070005A82AF015
:1009C00072E80028BBD06B46587DC10601D4800672
:1009D000B5D56B46187D0007000F0128AFD10190F7
:1009E000380002A92AF062E8012FA8D006990B204E
:1009F0000856002F03D16B46997D0D072D0F584FD8
:100A00003968884206DA7968884208DDB8680126C4
:100A1000002894D001242AF04EE8F8600BE02AF078
:100A20004AE8F9682AF04AE84E49884203D8B8688B
:100A3000002884D00124B868A04221D0002E1FD104
:100A4000BC602AF040E800280FD047491BA4B64CF0
:100A500001000000EC090000000200001E73B90E46
:100A6000C9696031C97B002909D06B46D97A4140F8
:100A7000D972597A41405972197C414019746B46B8
:100A8000187D01990207120F00922B00220002A884
:100A900001F0C5FD5DE7F3B591B005000A200690B1
:100AA0000020049002900190129800286AD02889B2
:100AB0006E694119202208A829F0FAEF08A80790CA
:100AC000129818302AF00CE808AB99780007C40F88
:100AD0000A070020920F022A03D10909090700D54D
:100AE0000120129F20432037002819D0FFF71FFC58
:100AF0000090387E224A41070798490F0C3029F0B0
:100B0000F4EF0A28069008D2002C06D006981C495B
:100B100000014018C168491CC1600098FFF70CFC37
:100B20001298FFF74DFF288920216C182038298161
:100B30002071000A6B466071188F00092072000A4C
:100B40006072B07A2070F07A6070A88800281AE08D
:100B500014E60200A0C3020048C3020038C302002A
:100B6000E4C20200C0E50200FC010004B4C00200BF
:100B700088C10200D4010004404B4C00F40C000476
:100B8000E00E0004BDE002D1287B20283DD108AB57
:100B9000D878800601D50120019008AB987801072C
:100BA000890F022931D10009000720D5FE480078BD
:100BB00000281CD00CF07AFA002818D0387EC00625
:100BC00015D5FA480068002811D0F94800680028B7
:100BD0000DD00CF0FFFA002809D006F040F90128EA
:100BE00005D0F4480068002801D1012002900DF0E2
:100BF000BDF8002809D0079829F04EEF002804D14D
:100C0000022012F0FCFE0AF036FB12993000FFF7CA
:100C1000BAFE3100C03116201091085E05F04DF883
:100C2000207310991220085E05F03AF808AB607343
:100C300098780009000703D5387E4007400F00E090
:100C4000FF20A072A888002804D0079829F024EF7C
:100C5000002838D00027A770E770A88829A96CD38E
:100C600001000000E80B000000020000EA9B07B34F
:100C7000002802D1287B20282BD1A07A0CF05BFA27
:100C8000002809D00198002804D00021300003F08A
:100C9000FEFA01E0CD48077008AB98780199020987
:100CA00030000CF04FFB0298012812D1C848008890
:100CB00000280BD0C74800220068462129F0BAEE70
:100CC000002803D0C4490120087002E015200DF06F
:100CD000FEF82800FFF7FBFC1DE0387EC00907D0B6
:100CE000129A21002800FFF742FE00287ED015E06E
:100CF000079B129A21002800FFF737FE00280DD12C
:100D0000A070E070FFF71DFB04002800FFF7DFFC78
:100D10002000FFF71BFB002013B0F0BDA888A070D7
:100D2000000A22000B32E0701298D11C29F0EAEE82
:100D3000707A02287ED1300011F0F9FC11214901AE
:100D400003904018077B002008AB0590987CC007F3
:100D500006D001200590F80775D0B80773D41EE0BF
:100D60000CA8801C12F0D0FA002804906BD0707A86
:100D7000022868D10498407BC00664D50498F17AB3
:100D8000C07A81427ED106980A285CD3780702D4C3
:100D9000F80758D003E0F8077ED078077CD48F4856
:100DA000002201888E4803230EF0BFF8002800902F
:100DB00046D00098A988818000F0BDFC009900040D
:100DC000000C0881009908220A73009947180F2126
:100DD000380029F074EE1020387100207871E07925
:100DE000A17900020843B871000A00E054E0F871EC
:100DF0000398806A012807D10498002804D0707BEA
:100E0000000701D5A07A38736079217900060014B3
:100E1000084301193800AA88103029F054EE0098D0
:100E200031694161F07A7870B07A3870A888B8700A
:100E3000000A00E007E0F8700098042100F068FC68
:100E40000598002828D00CF09BFF002802D0052030
:100E50000DF03DF8FFF775FA634B07006148290074
:100E60001D68002200680523A8473800B10D0D1346
:100E700001000000E40D000000020000F363D9C38C
:100E8000FFF76EFAA07A0CF060F9002817D00198ED
:100E900001280FD1002100E003E0300003F001FA47
:100EA0000DE03807D9D506980A28D6D30020A070BF
:100EB000E07018E70198002801D14949087008AB93
:100EC00098780199020930000CF046FA029801283E
:100ED00012D14448008800280BD043480022006803
:100EE000462129F0B2ED002803D0404801210170CD
:100EF00002E015200CF0F5FF012017E7FFB59DB0CB
:100F0000060008003768002115911F997C690029A7
:100F100010D040301C9029F0F8ED209905004118C0
:100F2000C0782031400602D4B88821B0F0BD2888AE
:100F3000682801D80020F8E717AA169100921F9997
:100F4000169818AA15AB29F0ECED280029F0ECED65
:100F500000286DD02A48002104AA01AB07C310ABBA
:100F6000284A00921D7F1A7D38002B0018A929F00D
:100F7000E0ED050048D12000FF30813001790906FD
:100F800023D5002C0CD00521C9016118496B00291B
:100F900006D010AB1A7F920068328B585B1C8B50C6
:100FA00001794906490E01711C9829F0AEED10AB8C
:100FB0001D7F1F992A01521B52180E320092010008
:100FC0001B7D2A002000FFF79AFC00203060B1E76B
:100FD0009D000004AC000004A8000004F000000420
:100FE0009C000004BCE70200B0C0020098000004AE
:100FF00056C30200E8010004B4C0020088C1020028
:10100000B01C0300C4C900C0356028891C99401970
:1010100029F092ED0088A8802000FF30813010ABCD
:101020001B7F0126320001799A40914301711DE036
:1010300010AB197D009101952A8816991698643A8B
:10104000091D18AB29F07CED06001CD0200010AB68
:101050001A7FFF3081300123017993409943017158
:10106000288808382880B8880838B880002C08D02C
:101070000520C0012018406B002802D0B283AF7257
:1010800001000000E00F000000020000078B677EF7
:10109000416E491C4166300051E7002C14D00520F8
:1010A000C0012018416B00290ED010AB1A7F9200AE
:1010B00068328B585B1C8B50416B0A69521C0A6169
:1010C000406BC168491CC1601C9829F028ED0100E3
:1010D00010AB187F1F9A03011B1A9A180E32009248
:1010E000020010AB1B7D2000FFF713FCD3E70028A4
:1010F0000CD00521C9014118486B002806D00269AF
:10110000521C0261486BC16C491CC1647047F0B548
:10111000012A069D059C13D0022A15D0042A2DD140
:101120004A780E78120292194E790F793602F61922
:10113000CF7812043602120CF6198978360212E0C2
:101140000A788E78120202E04A780E78120292191A
:10115000CE798F793602F6194F7912043602097961
:10116000120CF6193602711826688E4202D11F88B9
:10117000974203D2771C03D08E4201D90120F0BDE3
:10118000002801D01A8021602A8007980160002081
:10119000F0BDFFB583B004001E000C9F0E9D13F040
:1011A0001BFA002820D0607A02281DD0082E1BD3FD
:1011B000082F01D301208BE4380029F0D0EC030084
:1011C0008000B7250019AD00119A109940196D469D
:1011D00007C55800BB210019890043180D9A0599CD
:1011E0000498FFF794FF73E40FA807C86C462B0020
:1011F00007C4F3E702800B607047F7B592B01400A4
:101200000F00129800680E9000200B900E98456910
:1012100008004030119029F082EC060024300A903A
:10122000280012F010FD21003031203700281091E5
:1012300023D020002C3008AA09A903AB07C36B46B2
:10124000E079109A0107387E090F4007400F07C365
:101250000021B0780A9A03092800FFF79AFF0028B6
:101260000BD0002D08D00520C0012818406B0028A5
:10127000F8D0016D491C01658AE030886828FBD9E7
:1012800022004C3268380304111F081FFAF61110AF
:1012900001000000DC110000000200007990C0CEC7
:1012A0000692021F059103921C3A04900C393838BB
:1012B000009202910190387E1B0C47077F0F1A00A5
:1012C0000A9930003B0029F058EC0700300029F063
:1012D00040EC00283ED00CAA0BA9019200200091FE
:1012E0000B900E9B0A9A3100380029F04AEC002836
:1012F00058D0F94A0092F94AF94B0E98310029F07A
:1013000044EC002802D1129908604BE012990600C3
:10131000086001890818119929F022EC0F900B98A8
:1013200000284AD00CAA00920A990F982300320094
:1013300029F02EEC070040D1002D08D00520C00177
:101340002818406B002802D00168491C01600F98E2
:10135000807922E0002F28D03807800F0FD0002D91
:1013600020D00520C0012918486B00281AD0C26C73
:10137000521CC264486B0169491C016112E0B80744
:1013800010D5002D08D00520C0012818406B00287A
:1013900002D00168491C0160B079C107C90F28005B
:1013A00010F06CF9002015B0F0BD30881438308092
:1013B0000E980E9980881438888010996B46988C06
:1013C000089A0880002FE2620AD1002D08D005207B
:1013D000C0012818406B002802D0416E491C4166AC
:1013E0000120E0E7F7B582B0140007000068009024
:1013F000019003980025403029F09AEB06000198EF
:10140000F1784069490605D42030807E400730D409
:1014100001252EE0002C02D1002005B0F0BDA17AFC
:10142000C9071FD0E0790007000F012805D10399F3
:1014300022006846FFF7EBFE05E003992200042333
:101440006846FFF76FFD050000983860B079C00767
:101450000FD1002D0DD0A07980070AD5200000F013
:10146000F5FC06E00521C9014018406B8168491C64
:1014700081602800D1E7F0B5002697B002963DE1E3
:10148000002104910C990907C90FC9000391018932
:10149000081806A903F0DDFE16980028126DDEA1DB
:1014A00001000000D8130000000200008D787E7358
:1014B00005D1059800218180FFF731F928E11698C0
:1014C0000C3011F049FF040005D1169901201231AA
:1014D00011F065FF04001699200007F083FB002837
:1014E000E7D1002CE5D005994C61607A02280CD137
:1014F000200010F0B2FF0C300290607B169AC006FC
:101500000599C00F29F052EB10E0207A169A0128B5
:1015100007D123009C3329F04EEB200012F04EFB44
:1015200004E023009C33012029F048EB0598018951
:101530000918CA78D20701D18F1D01E00F001237B8
:101540000522D201A5186A6B002A02D0136B5B1C1E
:1015500013633A78D20705D06A6B002A02D0536B26
:101560005B1C53638288002A4FD0039A002A26D13D
:101570003A78D2071AD123000A22FF33833300922C
:1015800016999A1E29F01EEB05988088002816D11E
:10159000200006A9FFF729FA0598FFF7C0F8686B45
:1015A00000288BD0016A491C0162B1E003221202BB
:1015B000A21829F00CEB059880880028D4D0607A16
:1015C000022827D1200006A909F07AFC1699029872
:1015D000C978007DC906C90F884202D0200009F0F1
:1015E00039F9200007F01CFC200007F049FD012814
:1015F00003D11699200008F082FD02984030007B4C
:10160000032803D00599002088805FE00598808832
:1016100000285BD0169829F0DEEA002812D0059841
:10162000324A8188334B4039818000920189304AA7
:10163000091829F0B4EA00286AD005900189081831
:10164000169043E016988079C00701D0E86900E061
:10165000286A002801D006000836002E4DD0F17906
:101660000807000F022801D0032810D1FF3481346D
:10167000628816990120002A00D0002029F0AEEAE5
:1016800005983B00320006A913F00AFC17E0012878
:1016900001D0080730D1002013F044FA0028FAD115
:1016A000320006A905A8FFF7A7FE002854F811305C
:1016B00001000000D4150000000200009480A00387
:1016C00004D1059800282DD000218180049800289D
:1016D00006D0F0790007000F022808D0032806D0B2
:1016E0000598FFF735F8059806A9FFF710FA01F0FD
:1016F00026FD002816D0012001F052FD1BE000005D
:10170000B8C900C0C0C900C0B01C0300FEE7686BC8
:101710008168491C81601698BF21C07808401699DD
:10172000C87079E70121002006AA03F041FF0028D4
:10173000059000D0B8E60C498020C043086105F050
:10174000A7FA002802D0042001F02AFD0749002052
:10175000C860086117B0F0BD054A01000120914240
:1017600000D000207047000000A5008014E60200B1
:10177000888E0000022110B5017301000D481C2263
:101780000068042329F084E910BD406900697047AE
:1017900010B5406911F062FF10BDB0207047010024
:1017A00005A010B529F028EA10BD10B5406915F064
:1017B00093FB10BDB4C0020075736200F3B5002442
:1017C00006002500002881B014D0707A022811D0BC
:1017D00002E0012001F0AEFB28006D1C022807D2B8
:1017E00000221100FF4829F098E90400F1D00AE036
:1017F000002C08D10022FC48110003230DF0C7FB88
:10180000040000D1FEBD6661FFF7C7FF0004000CB5
:101810002081082705190F212800277329F080E966
:10182000300012F038FE28730F20287100206871F4
:10183000380AAF71E871B07A2870F07A687002984F
:101840000F3505602000FEBD10B502891231121857
:101850009170090AD1700F21FFF78CFF10BD0A00AB
:10186000E24910B529F0CCE910BD012070477CB5E4
:101870001400069A01920A0001000093DC4823003C
:1018800029F0C2E97CBDFFB583B01C000E000189C0
:1018900042690F18100002A9FFF790FF050002D15E
:1018A000012007B0F0BDD14A02983900931D00967F
:1018B00029F0AEE90298817C01290DD0145AAC744C
:1018C00001000000D01700000002000060681EBE8A
:1018D00000220092CA4A7130921D911F0023FFF727
:1018E000D0FF02996031C873000A08740599029804
:1018F0002300012229F09AE901002800FFF7AEFF3A
:101900000020D8E70100BF4810B529F094E910BDC8
:1019100010B504008EB0684629F090E920006946B1
:1019200013F029FF0EB010BDB64970B50400F231B6
:10193000080050382822050029F084E90120FFF72B
:10194000E1FF01002B0001222000FFF7E1FF70BD45
:1019500010B54069FFF7E8FFAA4901201E31C867AA
:10196000080080300068002803D0817AFD221140F1
:101970008172002010BD10B544690020FFF7C2FF3E
:10198000A04B0100CA3300222000FFF7C1FF9D4891
:1019900001211E304167826F002A03D18167200038
:1019A00029F054E9002010BDF0B505000E0029898A
:1019B0004069491985B00191170003A9FFF708FF95
:1019C000040002D1012005B0F0BD002200928C4A33
:1019D00001990398931D29F026E93100039801220B
:1019E0004031002329F022E90290706F00280AD0CC
:1019F000607B01210843002F607301D0824800E022
:101A00008248A06108E0002F03D0280000F0A4FA6B
:101A100002E02800FFF79CFF02992000FFF71EFF5D
:101A20000020D0E77CB50D00018942690E18100036
:101A300001A9FFF7CDFE040001D101207CBD0022E9
:101A400000926F4A01983100931D29F0ECE82900BB
:101A5000019801224031002329F0E8E8617B01224E
:101A6000114361736A49A16101002000FFF7F6FE8E
:101A700000207CBDF7B588B00025624C08981E3464
:101A8000210029F0E8E806001CD05E4F781D29F0FF
:101A9000E6E822001100403120320028069207912A
:101AA00028D0781D29F0DEE8002806D02000403834
:101AB0004178801C0DF0E6F902E0514829F0D6E8A3
:101AC000050002D100200BB0F0BD781D22493C3F3B
:101AD00001000000CC19000000020000A7711CE307
:101AE00029F0D2E8020021002000D431503002ABAE
:101AF00007C323000699079A01920091099A0A994F
:101B0000280029F0C6E80125079A069908980023BD
:101B1000FFF7CDFE002801D0002508E0012D06D1F9
:101B200031000931200029F0B8E80020A067280022
:101B3000D3E770B50600384D1E35290029F0B0E80E
:101B4000040001D1002070BD20790122022800D0BC
:101B5000002229003000FFF731FF002801D02000CB
:101B600070BD21000931280029F096E8EAE770B538
:101B70000600294D1E35290029F096E804000AD0F8
:101B800029003000FFF758FF002804D12100093157
:101B9000280029F082E8002070BDF8B505000E008D
:101BA00000891700401981790024090716D540796A
:101BB000C00709D02800FFF7BCFFF8BD012001F0E5
:101BC000CDF9641C2406240E3A0031002800FFF7EA
:101BD0005BFF0028F1D1072CF0D3F8BD2800FFF7F8
:101BE000C6FFF8BDF3B581B00E000B4C1E34E01DEE
:101BF000F9300500006800282ED0FC20075D10F0A9
:101C00005AFA3200019821000EE00000B4020004EC
:101C1000E8010004D0C002005EE00200591E00008E
:101C2000511800007718000000F0A9F9FB4E002FB2
:101C300013D0012F10D1B078F94A401CB0702100A8
:101C40003800082329F034E801986861F54AF6491C
:101C50002000082329F030E8FEBDF14A21003800B9
:101C6000082329F026E87078401C7070FEBD70B51E
:101C70000D001100ED4CFF2215321051E7480622ED
:101C8000123028F066EFE548062229000C3028F0D3
:101C900060EFE74AE7492000082329F012E870BD09
:101CA000F8B504000F00E14815001E3800781E004A
:101CB000C0070FD0DD4829F008E83900DB4F2A00C3
:101CC000403FB81C28F044EF7D70069A3100200098
:101CD000FFF7CDFFF8BDD848406800064BA375F16B
:101CE00001000000C81B0000000200005399A25E22
:101CF000000E7047CE48032110B528F0F4EFD0480D
:101D00001C211E3828F02AEFCD4801221E384178C8
:101D10001143417010BDCA4808B52038C1786B46E0
:101D2000197000795870009808BDC14880687047E4
:101D3000002809D0BE498968884205D1C0481E38AC
:101D40000078C007C00F704700207047BC491E399B
:101D50000978CA07B64900D1002088607047B449A5
:101D600000208860B6481E38017849084900017093
:101D7000C0E7B34801221E38017811430170704753
:101D800070B50C0086B00A9916000B9A0500002960
:101D900002D1002005A905900291A549A848019308
:101DA000039223002A00C91C1E38009628F09EEFDB
:101DB00006B070BD70B50500A1480E0040384178EE
:101DC0001400801C8EB00DF071F800280FD00100B7
:101DD00023003200684628F08EEF2800694613F091
:101DE000DEFC974828F07AEF9549012088670EB00D
:101DF00070BD70B50500924C1E3C2078C00710D015
:101E00006078C0060DD5E07800220007C10F2800D9
:101E1000FFF7D0FFE07801220007C10F2800FFF78D
:101E2000C9FF70BD07B56B4681481978C1705978F4
:101E3000017119794171197A81710EBD7C4B10B510
:101E4000DC7804701C7944705879087098791070A7
:101E500010BD7B4B10B5203BDC7804701C794470BE
:101E6000587908709879107010BD10B5FFF742FFCF
:101E70006F48FF220421C01C28F028EB734800247F
:101E8000012112C028380477E03828F038EF68487C
:101E9000846010BD10B56D4CA068002803D028F0F8
:101EA00032EF0020A06010BDF4E76848183070479A
:101EB00063498031002808600BD09E390978C90732
:101EC00003D05F49C96F002903D0817AFD221140F8
:101ED00081727047FFB583B0050010000E9F0D9E04
:101EE00000224A7020220A706A78A91C8A03C3194A
:101EF00001000000C41D0000000200004A617C2EA9
:101F00005418291D083528F00CEF28786B461872F4
:101F1000687858721889AA1C81008D1801060698E5
:101F2000090E28F002EF28786B4618716878AD1C0E
:101F3000587100959888B100800045190C9828F0D8
:101F400018EE6B469888B04200D3300082000099AA
:101F50000C9828F012EEA54207D22800AD1C002FE5
:101F600003D00178397040787870A54206D22800F5
:101F7000AD1CA54202D2008800014519A54207D236
:101F80000F982900002803D00F98042228F0F4EDC0
:101F90000120AEE410B50400FFF7F8FC2000FFF7C5
:101FA00008FD002010BDFEB50C000600086F1700EC
:101FB000401C06D1E06E401C03D1200028F0A8EEA2
:101FC000FEBDFEF718FA050002E00021FEF7ADF9AC
:101FD000244828F0AEEE0028F7D12800FEF710FACA
:101FE000300001A9FFF712FC0500E9D0154A01985D
:101FF0000C323900931D009428F09EEE154E1E3EC3
:10200000701D28F056EE020030790007C30F70787B
:102010008006C10F019828F094EEE16E491C012959
:10202000E16602D1206F401C206721000198012247
:102030004031002328F018EE01002800FFF72CFCA7
:10204000FEBD0000C4C00200D9E2F003409C0000C5
:1020500005E3F0037CE00200809698002DE3F00396
:102060007CE10200D00F000470B5002503894469AB
:102070001B185E78002E0BD0032E14D1637A022B2E
:1020800002D114F0F3FF01E0FFF79BFD01250AE008
:10209000607A032801D0012805D11879012802D1DE
:1020A000080028F052EE280070BD10B50CF02AFF91
:1020B000FFF7E5FE002010BD10B50400302015F03C
:1020C00048F900F0FEF9E00602D510F0B7F810BDAF
:1020D00010F01DF810BD0020EEE77047022010B58B
:1020E00000F00AF80400022000F049F80200210084
:1020F000022000F01DF810BD042803D237A335C715
:1021000001000000C01F000000020000BE89C29351
:102110005B498000085C7047FF2070470A0002207E
:1021200010B5FFF7F3FF904201D1FFF7DEFF10BDBE
:102130000A00022010B5FFF7E9FF904201D1FFF736
:10214000D6FF10BD012910B501D100F0F1F810BD86
:10215000FF280BD04A4A00218B00D35C834202D176
:102160000806000E7047491C0429F5D3FF2070476C
:10217000FF280CD0424A00218B009B185B788342D9
:1021800002D18800105C7047491C0429F4D3FF2059
:102190007047042804D23A498000401840787047BC
:1021A000FF207047FF280CD0354A00218B00D35CFC
:1021B000834203D18800801840787047491C042965
:1021C000F4D3FF207047FF280CD02D4A00218B004C
:1021D000D35C834203D18800801880787047491C03
:1021E0000429F4D3FF20704770B505000C001000DF
:1021F00000F024F9200028F0B2EC2800FFF7B8FF27
:10220000012802D1200000F063F870BD10B5040071
:10221000C00005D50122120311040C20FFF7E4FFD2
:10222000200105D50122D20211040B20FFF7DCFFAB
:10223000600105D50122920211040A20FFF7D4FFA4
:1022400010BD0120C00310B500F0F2F80120C00756
:1022500028F088ED0B48C16880221143C16010BD91
:102260000120C00310B500F0E9F80120C00728F0F4
:1022700076EC0449C86880229043C86010BD000015
:1022800000C402000028008070B50500FFF760FF61
:1022900006002800FFF786FF2800FFF794FF0400E0
:1022A000022E05D1082000F0C9F8B00428F056EC41
:1022B000032C07D0082C05D0092C03D100211020B5
:1022C00028F054EDFF2229001000FFF727FF70BD12
:1022D00010B50400000302D50120FFF7D5FF01224D
:1022E000100011078C4200D0002001231100DB06F2
:1022F0009C4200D000210843012189068C4200D075
:102300000022104313D0FF208206A11878E092D754
:1023100001000000BC21000000020000B656334E50
:1023200008D0891804D0C206891804D10C2002E014
:102330000B2000E00A20FFF725FF012801D1FFF75D
:10234000ADFF10BDF8B505000E0017000800FFF73F
:1023500044FF0400022D0AD1032F08D1082000F009
:1023600071F8082000F07AF8A80428F006ED032C94
:1023700007D0082C05D0092C03D10121102028F00A
:1023800000EDFF2231001000FFF7DCFEF8BD000079
:102390008A480068416801225204914341607047B5
:1023A0008648006841680122520411434160704729
:1023B00082480068816B002904DA816B0906090FE5
:1023C000FBD17047806B70477C4909688A69120CA1
:1023D000120402438A61704778480068806BC00726
:1023E000C00F70477548006841680122D2039143CD
:1023F0004160704771480068816BC907FCD0416833
:102400000122D2039143416070476C4909680A6B0D
:10241000086348680122D203104348607047674848
:102420000068406A70476549096880314A6A00015E
:10243000120F1207000902434A6270475F480068A2
:10244000C06A70475D490968CA698243CA617047BA
:102450005A490968CA690243CA61704757490968FD
:102460000A6A02430A627047544909680A6A824349
:102470000A62704751480068803041684908490045
:10248000416070474D480068803041680122114327
:102490004160704770B5494D28688030016801225D
:1024A000114301600168464C490205D50168A1430A
:1024B00001600A2028F0B2EA2868803001682143D0
:1024C000016070BD3D480068010080310A68520813
:1024D00052000A60816BC900FCD47047374800681D
:1024E00080300068C007C00F7047344800688030F3
:1024F0000168334A9143016070473048006880307A
:10250000C068704770B52D4D29680E690C00012117
:1025100009040E432661210080310E691150227397
:1025200001000000B82300000002000042BE8DF34D
:10253000086148694B618869F0208861C869CA618F
:10254000A06810210843A060A06820229043A060EA
:102550002868416B436B8B42FCD0FFF7D8FF002803
:10256000F6D12868816811438160416801225203D5
:102570001143416070BD16480068803000697047A3
:102580001348006881682022114381607047104819
:102590000068816820229143816070470C49096876
:1025A00080310A681F23DB05C0069A4300090243F5
:1025B0000A60086801221207104308607047044847
:1025C000006880300168FF22521C1143016070478F
:1025D000DCC0020000004000B44908220028C8689E
:1025E00001D0104300E09043C8607047B04900201C
:1025F00010B5086003F0CEFD10BDF0B503252D0326
:10260000AA48AC4CC030C20D9302870C0029A74EDB
:10261000016A0AD011430162016A99430162A0680C
:102620002843A0603068384309E091430162016AA1
:1026300019430162A068A843A0603068B8433060C5
:10264000F0BD38B505000024684628F0B8EA002837
:1026500019D0002D0BD16B465878C10713D0400616
:1026600011D598780007000F0BE001240BE0012D35
:1026700009D16B465878810705D5C00903D09878F1
:1026800000090128F1D0200038BD73B56B46050064
:102690005C79600705D586480168002901D10121D0
:1026A00001602800FFF7CDFF0106090E2800FFF7A3
:1026B000A4FF600703D46B461879000900D00120FD
:1026C000FFF78AFF7CBD33B56B460028197902D12C
:1026D0000807000F02E0012813D10809764A734960
:1026E000D443803100280DD0744B754D01280DD096
:1026F000092810D00F2804D1C817C8600861C86124
:1027000008623CBDCA600A61CC6102E0CB600A612C
:10271000CD610C623CBDCB606A480861CD616A48FE
:10272000EEE7F0B50028047A45780679ED0E2675B7
:1027300001000000B4250000000200005B46538346
:10274000477926D001290CD10599012909D1012AFF
:1027500006D16540D90700D06640990700D567408B
:102760002C0001782A0609040A4321020A4354492D
:102770002243C0314A628279C37812041B021A4391
:1027800032438A62C279807812043B021A430243C0
:10279000CA62F0BD38B505000024684628F008EB91
:1027A000002803D1280000F00FF838BD6B461878D8
:1027B0000007000F01D0012804D10099280000F083
:1027C00041F80400200038BDF0B5002687B00500B0
:1027D0006B46187D3700340030001E75002D0696BC
:1027E0000AD101215975997D002199751921187215
:1027F0005972992298720AE003216B465975997DA6
:10280000002199751A2118725972162298726B4616
:10281000DA720390197405992800FFF740FF6B46A0
:10282000997D28000191FFF758FF069823000207C1
:10283000120F00923A00310002A8FFF77CFF01203E
:1028400007B0F0BDF3B585B0002507002E002C00C1
:1028500002A928F0C2E90028F2D006993800FFF753
:102860001EFF6B46997E38000191FFF736FF6B46DD
:10287000587EC10601D4800600D5012528F0B8E9AC
:1028800000280FD01649C9696031C97B002909D0D9
:102890006B46D97A4140D972597A41405972197CB4
:1028A000414019746B46187E23000207120F0092F4
:1028B0003200290002A8FFF73EFF0120C0E7000018
:1028C00000A70080E0C002000028008011DD55DD77
:1028D0001FDF5FDFEF2FAF2FF1FDF5FDFEF2FAF204
:1028E000F40C0004FB4910B5096827F052EE890585
:1028F000800A084301D028F0A6E810BDF648016A16
:102900000F22114301620220ECE7F348016A090932
:10291000090101620120E5E7F04970B50868082265
:1029200090430860EE4A50684008400050601069CB
:102930000B2108431061EB4908009369CE34CBA208
:1029400001000000B027000000020000AFAEED3E25
:10295000DB0601D4401EFAD29069800601D4491EDC
:10296000FAD2FDF77AFDE5490A6801246406A2431C
:102970000A60E24A80321368E14D2B40136013680D
:10298000ED432B4313600A6822430A60FDF76AFD9A
:102990000120FFF7B1FFFFF7BBFFFFF73BFE70BD64
:1029A00070B5802028F0E2E8D6490A78022A08D1DA
:1029B0004A69521C4A61010600D4FEE728F0D6E8B5
:1029C00070BD0A69002A00D0FEE708610220087085
:1029D000CD4D01204861AC8880020440A8886B2658
:1029E000A043F600B042EBD0022000F0C0FA00286D
:1029F000E6D03443AC8070BDC24910B54869401E72
:102A0000486107D1086900220A61FF220A7028F094
:102A1000AEE810BD0028FCDA802028F0A8E8FEE728
:102A200070B5B84E3069002802D0FDF716FDFEE7FC
:102A3000FDF713FDB44D3061AC88012080020440E5
:102A4000A888A04382280BD02888F080002000F0BE
:102A50008EFA002804D0A888308182200443AC80FC
:102A600070BDA84910B5A84A0B8908699380CB8826
:102A7000138000220A61FF220A70FDF7F3FC10BDEB
:102A800010B5A04C2069002802D0FDF7E6FCFEE757
:102A9000FDF7E3FC9C4920618888012292021040E6
:102AA0008A888243022A08D00A88E2801A220A8091
:102AB0008A88228102221043888010BD914910B576
:102AC000914A0B8908699380CB88138000220A61A0
:102AD000FF220A70FDF7C6FC10BD70B505000E00A0
:102AE00028F074E9884C2034258128F070E9A6800C
:102AF00028F06CE970BD70B505000E0028F066E99D
:102B0000814C2034258128F062E9A68028F05EE916
:102B100070BD70B5050028F05AE97B4C2034258142
:102B200028F054E9207970BD70B504000D00FFF75E
:102B3000F0FF284301002000FFF7DDFF70BD70B5F6
:102B400004000D00FFF7E5FFA84301008165C5ED16
:102B500001000000AC2900000002000068B7EF632C
:102B60002000FFF7D2FF70BD6B484178002909D1E2
:102B70006B4909680122C9034270090F020018322B
:102B8000515C817080787047664B59683822914358
:102B90001040084358607047624B59680F229201F9
:102BA0009143104008435860704710B50C00FFF780
:102BB000F3FF2000FFF7E8FF10BD5748C178002958
:102BC00001D10121C17000797047534910B50869DE
:102BD00000220A61FF220A70FDF74EFC10BD70B59D
:102BE0004D4C2069002802D0FDF741FCFEE7FDF7BF
:102BF0003EFC4A4D2061AC88012080020440A88838
:102C0000B526A0433601B04206D0022000F0B9F943
:102C1000002801D03443AC8070BD10B50400FFF72C
:102C2000DEFF2620FFF77FFFC0096106C001490EC5
:102C300001432620FFF769FFFFF7C7FF10BD020021
:102C400010B5FFF7BAFF374980390B0D00288868A7
:102C500003D018438860002002E098438860100089
:102C6000FFF7DBFF10BD10B5040003F01EFF0028C6
:102C70001ED12748C168090909012143C160816843
:102C800009090901214381608268010C0A438260BD
:102C90000269120912012243026102690A430261B8
:102CA00082690A4382612049A000085813490860DC
:102CB00010BD1748803800880006000E7047144881
:102CC0008038006819498872010C1848203801853D
:102CD00017494969016370471448203841690C2934
:102CE00003D00C2141610800BDE770470F4920392E
:102CF0004A69886990421DD04861B4E79CA900C028
:102D000080A1008000A3008040A6008088130000FE
:102D100000210080FFEFFFEFE4C0020000080090F8
:102D2000002000800029008038BE0200140D00043D
:102D300000A8008070479849486888614A698242C3
:102D400001D048618FE770479349886888614A6974
:102D5000824201D0486186E770478F49FFAFBDDAF4
:102D600001000000A82B0000000200009C5F51DE63
:102D7000C86888614A69824201D048617DE770472E
:102D80008A49086988614A69824201D0486174E7CA
:102D900070478848864A0168114301607047854939
:102DA000834A086890430860704770477047002066
:102DB000704710B5804C607940280CD100206071BC
:102DC00028F01CE8010606D58106890E40066171CF
:102DD00001D5484260710520205610BDF8B5002489
:102DE0002500764EB06840218843B060B0688021ED
:102DF0000843B060724F0621386827F0E8EB890578
:102E0000800A084301D027F03CEEB068FF21491C3E
:102E10000843B0603868062127F0D8EB8905800A9E
:102E2000084301D027F02CEE7D21C900B068641C56
:102E3000020202D48C42F9D300E0050EB068FF21F3
:102E4000491C8843B060B06840210843B060B06856
:102E500080218843B060FFF7ACFF281A0006000EFF
:102E6000F8BD10B5FFF7BAFF0620FFF759FDFFF7D1
:102E7000B5FF10BD10B5FFF7BCFE03215320FFF7CF
:102E800067FE00212F20FFF74AFE20213020FFF7A8
:102E900046FEFFF7A4FE10BD10B5FFF7AAFE032102
:102EA0005320FFF760FE40212F20FFF738FE282136
:102EB0003020FFF734FEFFF792FE10BD10B504007E
:102EC000FFF797FE5420FFF738FE012C02D11021A6
:102ED000084301E0EF21084001005420FFF71FFEE6
:102EE000FFF77DFE10BD3448C0687047F8B5050097
:102EF00018200090687829782F4F0002084328375F
:102F000001282FD16879297900020843182801D0B7
:102F10000020F8BDAC1D0020E178227809060A43A4
:102F2000A178637809041B0219430A43C1007B5846
:102F30001E68C91949688E43114031431960401C0D
:102F4000241D0628E8DB1F4C206A01263605B04305
:102F50002062206A304320620120FFF7E1FC206AF2
:102F6000B0432062A81D0022D300F9580F6FC3A000
:102F700001000000A42D00000002000085A78FAE14
:102F80000968DB195B68521C19400B0A0170437019
:102F90000B0C090E8370C170001D062AEEDB009831
:102FA0002871000A68710098F8BD10210A2803D220
:102FB000064940005831095A0848018001207047ED
:102FC000F40C00040008208800210080E4C0020006
:102FD000802800809CA900C0002300800008009089
:102FE000FEB50D001600089F0A9A0999002800D125
:102FF000FEE70468002C00D1FEE702920191320046
:1030000029002000009714F0E1FDFEBD10B527F067
:1030100004EF0006000E10BD10B527F002EF000609
:10302000000E10BD002810B501D027F0FEEE10BD37
:1030300038B514006A4627F0FCEE00982070002096
:1030400038BD10B5040027F0F8EE2060002010BD58
:1030500010B527F0F6EE10BD7CB50D001600079AEE
:103060000699002800D1FEE70468002C00D1FEE795
:103070000192009132002900200014F085FE002802
:1030800000D165637CBD10B5416B14F094FE10BD9A
:103090007CB50C001500069A002800D1FEE70068F8
:1030A000002800D1FEE70021019200912A002100B2
:1030B00014F0BAFD7CBD10B514F0D5FD10BD10B5EF
:1030C00014F0DCFD10BD002810B500D1FEE700684B
:1030D000002800D1FEE714F0DAFD10BD10B514F0A1
:1030E000E0FD10BD38B51400049A0092220014F0DF
:1030F000FDFD38BD002810B500D1FEE700680028AE
:1031000000D1FEE714F026FE10BD10B514F02CFE21
:10311000112800D1122010BD10B514F02DFE10BDE5
:103120002548C1690029FCD0816A042211438162CB
:103130007047F8B5050000200BE04F680E690C6879
:10314000280027F082EE002C02D039003000A04782
:1031500001202968002902D08A68002AEDD0F8BD34
:1031600070B5164D2869002804D015490868401C20
:10317000086070BD27F06CEE27F06EEE7972904B10
:1031800001000000A02F000000020000714F311369
:10319000040027F070EEE968A14200D9641E686857
:1031A000210027F06CEE281DFFF7CDFF686800288E
:1031B0000AD027F05CEE6A680100100027F05EEE8E
:1031C0006868806827F05EEEE86070BD00340080BB
:1031D000A8180300B03A030070B5802027F0EEEC89
:1031E00010498D69104900264A680C68954200D83C
:1031F00000E0641C27F0E2EC6D1C6842310080198D
:10320000614170BD08480168491C01600021C94343
:10321000416070470348806903494A68904200D87A
:10322000486070470034008048C1020000226621D7
:1032300010B5FF48006827F0B2EC002800D001204C
:1032400010BD10B502F028FA002805D001F0E2FA0E
:10325000002801D0012010BD002010BD10B518F0CD
:1032600098FD10BD10B50C008968CA0010D5012268
:1032700012079143A160217801224907490F10F0FC
:10328000A6FC0101206E028B1207120F0A43028373
:1032900010BD10B50C001100FFF7E4FF200018F07E
:1032A0002BFE10BD0100E34810B580680722FFF730
:1032B0001FFF002010BDF1B582B0DE4C606A401CDB
:1032C0006062FFF789FFDC4F0090FE6A0D00DB486B
:1032D000F862210002981E22183127F0D8ED00284C
:1032E00002D0606B401C6063FE62D548806920623A
:1032F000FFF772FF009A276B861AA9410D007A1C0E
:103300000020E06A216B00234843002180196941B5
:1033100027F0C0EDE062206B401C2063A06A002112
:10332000801BA94100D3A66AA662A069E169884210
:1033300001D9A06900E0E069E061626BA16A112037
:103340001FF054FAFEBDF8B50700BA4DFFF744FF71
:1033500004000E00BB49380027F0A0EDFFF73CFF4A
:10336000041BA86BB1410B000021001B994100D345
:10337000AC6BAC63F8BDB4480088002804D0B349F6
:1033800001200978042900D0002070472D6580D3E2
:10339000010000009C310000000200000F5496A3C1
:1033A000202089E7F8B5FDF78AF8A74B0090586907
:1033B000012700243D00002800D00025002039000E
:1033C00081405A690E00164202D10C000A435A612C
:1033D000401C002C01D11F28F1DD002D08D027F062
:1033E0006CEDA048FFF771FF39200001FFF7B5FF32
:1033F0000098FDF769F82000F8BD70B50400FDF7EE
:103400005EF89149050022684869904348610021AF
:103410000028216007D16F20FFF79FFF27F050EDB4
:103420000120FFF749FF2800FDF74EF870BD10B5E9
:1034300041690400487A022804D1200007F05AFCB0
:10344000002802D12000FFF713FF002802D120003E
:1034500027F0B2EB10BD38B505227B4C0021A068E7
:10346000FFF750FE8048052200680021FFF74AFE62
:1034700002E0009827F0A0EBE068042200236946F0
:10348000FFF731FE0F28F4D1784800250570784801
:103490000F2127F096EC774825700560002038BD95
:1034A00070B5040000890519286F00280FD0C07975
:1034B0000007000F022804D1286E0188103901800E
:1034C00001E0032803D1200011F04DFD70BD6669B5
:1034D000002E08D0707A022805D13100200007F0B4
:1034E00009FC0128F2D02A0021003000FFF7DBFEA2
:1034F0000028EBD1200011F071FA00212000FCF728
:1035000078FF70BD70235A4A5843E03A10B58418CA
:10351000A088E288824201D1012010BD8200A21859
:1035200092680A601821401C27F0CEECA180A06EA2
:10353000401EA066002010BD70B50C00417A160038
:1035400002290AD107F08FFC012806D130001C386F
:1035500002210BF0E1FD01280CD0702144486143A9
:10356000E0380C18E5881821681C27F0AEECA0881C
:10357000884201D1012070BDA80020188660E1803A
:10358000A06E401CA066002070BDFFB58DB010007D
:1035900001240029179D169A6ED00528F55C9EEA35
:1035A000010000009833000000020000FBBC281E50
:1035B00001D00628FBD12B0060330C9318730B90BD
:1035C000401F0606360E70202E4B7043E03B0590E0
:1035D000C018FF235B1CB3400A9020480693006983
:1035E0001700034009931023B3409E4603409C46B6
:1035F000069B1C3F03430893069B984307900A9839
:103600006C30012904907ED10998144B0028039650
:1036100053D160460028764671D11A480599E038A2
:10362000405C00283BD12878002241070D98490FC3
:1036300010F0E1FA6B46998800010907090F014370
:10364000019118790009000118710199109818F07A
:103650005FF80C98017B1AE0B0C00200580000042B
:10366000C0A60080FF7FFF7F40A20080FFFF000018
:10367000BCE7020035C30200FF03000030C40200B3
:10368000E4010004A80E000424C4020042E01098E3
:1036900027F028ECFF4801690E4306612FE00898E7
:1036A000FC4906430E6103990D98FFF74FFF002870
:1036B00009D10A991098487052E061460029704675
:1036C00006D0039956E038000021FCF79CFE4AE042
:1036D00007997026084318610398EF4F464308E0A6
:1036E0000298A9788170B95D1C38491CB955FFF75B
:1036F000E1FE039802A9FFF70FFF0028F0D0002C8D
:103700005CD0702300E006E00398E34A5843115C64
:10371000491C115452E0022950D10998DD49002872
:1037200023D160460028754640D0DB480599405CAF
:10373000002808D10B99109827F0D8EBD5490869D3
:10374000A843086132E00898D249A84308610D985F
:103750003100FFF7FBFE0028B5D10A98109941709F
:103760000498FCF70BFF002428E06346002B70460A
:1037700006D131000D98FFF7E9FE0128F3D1A2E749
:10378000079A7027824377430A6109E00298A97873
:103790008170C1491C38CA5D521CCA55FFF78AFEA8
:1037A000300002A9FFF7B8FE0028EFD07F3048BCF8
:1037B000010000009435000000020000E244F66EB3
:1037C000002C05D070207043B8490A5C521C0A5482
:1037D000200011B0F0BDF8B5141806001C203518F3
:1037E000002930811DD0607821780002084300272D
:1037F0001E2803D91E382070000A01E0380A2770FD
:1038000060707421280027F0F0EA7069007A0328BC
:1038100003D004F0E4FF012802D10520A87000E0E5
:10382000AF70E078FB210840E070607E217E0002EE
:1038300008430007000F2076000A6076207E0721EB
:103840000009000120762878084328702C6604209F
:1038500060352873300016F05AFE002802D130007F
:10386000FFF7F9FDF8BD70B5914827F0DAEA0400DA
:1038700017D020890519697828780EF0E9FE00280C
:1038800010D0606168792A792189000210430818F4
:103890000204120C01212000FFF79DFF0120FFF719
:1038A0001FFD70BD200027F09CE970BD7F4870218E
:1038B00010B527F09AEA7C490020086110BDF0B5E8
:1038C0000026CBB0340011960E96FFF7EFFF774835
:1038D000E8304A900022D243734F00927549B8688D
:1038E000082241ABFFF726FC41980028F2D04006A1
:1038F00007D500200EF04BFC6F484168420611438B
:1039000041604198C0060AD50EF061FC6B48072261
:1039100000681021FFF70AFC28200AF0AAFB419852
:10392000000601D515F07DFD4198C00501D515F0C3
:103930006EFD4198810602D5614A00211170400751
:1039400001D5FDF74CFE4198800711D521F01EFEF0
:103950000128BFD004E01398B0220021FFF73BFFFD
:10396000F8680422002313A9FFF7D1FB0F28F2D136
:1039700041980921084279D0FFF775FF0FF013FF36
:103980000028A7D078690028A4D1FFF712FD0028ED
:10399000A0D10AF094FB00289CD021F0F7FD01286B
:1039A00098D038698005800F76D00025FF203E4AE8
:1039B000401CA840116903000B426AD09E7B4D2930
:1039C00001000000903700000002000016AC48D350
:1039D00070276F433A4BDB5D002B64D1814310208D
:1039E000A840084211613ED03B493C480BF0FAFB2D
:1039F000334900203A4A7918499114214143535CD4
:103A0000002B25D0499B891889785B7899421FD172
:103A10001423584380184890001D0FF051FD0300F7
:103A2000489800224178180010F0F9F86B46998EFA
:103A300000010907090F014308AB0D91187D00092A
:103A40000001187549980D99407817F075FE02E04D
:103A5000401C0228D1D3681D01064998090E407800
:103A600027F054EA19E01F491C480BF0BBFB681D06
:103A700001061348090E3818407827F04CEA0CE08C
:103A800044E3194915480BF0ADFB44981C38FFF787
:103A900025FD0B49C85D401CC855280044A9FFF707
:103AA0004FFD0028EDD06D1C022D89DB002E72D059
:103AB00000200C900B900DA003C81BE058000004E0
:103AC000C80D00040C100004FF01000040A5008098
:103AD00048C8020035C3020011111111BBBBBBBBAA
:103AE000B80E00042222222233333333AAAA030061
:103AF00000000000099006200A910890FFF7BDFE23
:103B000030890F228519FB48290027F0B8E8687929
:103B1000297900020843F74F40190D9038780028A2
:103B20000DD179780EF09EFD0400007A012833D182
:103B30000D980FF0C5FC00282ED004002CE00128C1
:103B400001D0022828D179780EF08CFD040025D010
:103B5000607A022827D10D980078C0070ED0200087
:103B60000EF0C1FE00280E901DD00E98092189018B
:103B700040184069002816D100240FE00D980FF07E
:103B80009FFC04000EF01DFD002C07D04030007E8D
:103B90000328F1D107E0BAE2002C04D10021300063
:103BA000FCF745FCB3E2D44901207461087004F0CD
:103BB0003EFC78887D218901884200D3FEE716A863
:103BC0007421159027F01AE9787BC007377CFAC377
:103BD000010000008C39000000020000D1B54A8EBF
:103BE0001FD000F0A2FB08F0C0FD002812D0C8488A
:103BF000007800280ED1200010F001FD00220121E4
:103C000001920091797B02000907CB0F012120006E
:103C100000F073FC08F093FD0028C9D009F067FCA0
:103C2000C6E7207A012802D0607A022804D10D99D3
:103C300020000FF0F5FF02E0200010F09FFD129031
:103C400015982B951430339039A81C90129A159919
:103C500000923491B98802004B19AB49200000F062
:103C60008BFBF988E62901D1002000E00C207A883E
:103C700030AB121A1A83BA8828181018E629359022
:103C800001D10020089008AA09A936A86B4607C3ED
:103C90000BAA9D4D3599E88814AB27F04AE9070037
:103CA000002030ABD876287B082802D300212800DA
:103CB0000173607A032801D001280BD1200010F095
:103CC0005DFD002806D0904D2000297B10F03FFEBE
:103CD000287312E0207A012804D1200010F04EFD54
:103CE000002802D1607A022809D10D9920000FF036
:103CF00097FF002803D08448007B30ABD876002F94
:103D00000AD0200018F03FFA400620AB998A800DB7
:103D10007F22D20091430BE03820005D0025FE2871
:103D20000BD020AB998A7F22D20091434006800DB0
:103D3000014320AB0125998211E02000FF309D3026
:103D400027F0FAE820AB998A7F224006D200800D46
:103D50009143014399821C988079C0072BD0229807
:103D600001210903084322901C988079C00722D0C2
:103D7000229809110843202188432290607A022862
:103D80000BD10E9820304078002802D027F0D8E8D8
:103D900008E0200018F00AFA04E0002D0BD1200002
:103DA00018F0F1F9400620AB998A800D7F22D200ED
:103DB00091430143998220AB988A8105490E0329DA
:103DC00008D85449097F890604D57F21C900884352
:103DD000283098824F4901202031097EE61E6F7CF1
:103DE00001000000883B000000020000255DF43364
:103DF000C9060AD4617A022906D10E9A09218901DD
:103E00005118097F090700D400200F90207A00285C
:103E100017D1200020304790807E000711D420ABBE
:103E2000988A8005400E27F09AE80500122027F0B6
:103E300096E8854205D84798807E8007C20F012109
:103E400004E03A20005D0F998007C20F339827F0F5
:103E50008AE81C993148354B007B891D10AA27F050
:103E600086E800281BD020AB988A8005400E1DF004
:103E700044FF002805D02E49C8430BF0C7F901259F
:103E800005E02B482B49C0430BF0C0F902253498BC
:103E900001218068090708433499886015E02448A7
:103EA0002549C0430BF0B2F91298002500280CD028
:103EB00030ABD97E012220000FF0C5FE30AB198C4B
:103EC00000010907090F014319841C2030813018B3
:103ED0004390159808AB4290187B089A079209A95D
:103EE000129A06910CA905900C4802950391049230
:103EF000C08811990206120E019200913B00310018
:103F000014AA34A814F0D6F820AB44904690D8896F
:103F100010ABD8831498002810D053E6A80E0004E4
:103F2000E40100049B000004F01B0300B80E000431
:103F3000444444445555555566666666469800287F
:103F4000EBD04A9826F0C6EE420920AB988A1021A1
:103F50008005400E4590084352014A99104326F0CF
:103F6000D2EE01000C98002800D0329046982E9096
:103F7000002030AB19911871459810AB98762E98A7
:103F800030AB008B198C00070909000F09010843A9
:103F90002E9908832E9880780009082810D14A9815
:103FA00026F098EEEB490122C988E62900D00022CC
:103FB0000092020030ABDB7E4299339826F0DAEFB4
:103FC000607A032801D001280AD1E248817B027B74
:103FD0004B004299200010F0D4FC00289DD019E03D
:103FE000217A012901D0022814D112983146602388
:103FF00001000000843D0000000200003CA52A43AF
:1040000000280DD0002D07D0429910ABD74A187860
:104010006C3126F0BEEF07E0D348007B26F084EE3B
:1040200026F0BAEF30AB1871002F09D1207A0028A2
:1040300002D0607A03280DD11EF0C8FA002809D0FA
:10404000CB4810AB012D988304D019980E2126F08F
:10405000A8EF19903399429817F039FF012D10D12C
:10406000C449C5480BF0DCF810ABC049187826F0FD
:104070009CEF22986907084322900A2018AB187316
:1040800009E0BC49BC48C9430BF0CAF8339A4299CD
:10409000200017F0D8FDB448407B000706D500F09B
:1040A00058F922980121C9070843229022991898AB
:1040B00010AB08431890188F1885588F5885339A7D
:1040C0004299200017F0DDFE229810AB0001000994
:1040D0002290188B20AB98814398429974222C909F
:1040E00026F06EEEA44FA54938000BF099F8189908
:1040F00038000BF095F830AB197938000BF090F8D8
:104100004299439A019130AB00921A7910AB1B7817
:1041100029002000FFF775FA002816D03000FFF7BD
:10412000FBF9002602F07CFE00280ED0FFF7C4F851
:1041300000280AD10420FFF7FBF801F0F3FA002869
:1041400019D00120FFF7F4F815E041980821084242
:1041500002D014F0A0FF0BE0894826F08AEE002878
:1041600004D1884826F084EE002801D00421017390
:10417000060000D0BAE4844900200870FFF7D2FBA3
:10418000401F10B50406240E022C14D2702076496C
:104190006043E0394018702126F04EEE7B4A012042
:1041A0001169A04008431021A1400143FF20401C99
:1041B000A0408143116110BDF8B5441F022C25D2E7
:1041C000FCF7B9F90600714DFF20401C2969A04099
:1041D00008420AD003E000981C38FFF79DF9200040
:1041E0006946FFF7CBF90028F5D0FF211231286985
:1041F000A1408843286170205B496043463778BC02
:1042000001000000803F000000020000C84D94FE45
:10421000E0394018702126F01AEE3000FCF79AF9C8
:10422000F8BDF8B5441F022C26D2FCF78EF9060023
:104230005B4DFF20401C2969A04008420BD004E0E0
:10424000009800211C38FCF71AF920006946FFF796
:104250009FF90028F4D0FF2112312869A14088433A
:104260002861702045496043E0394018702126F0EC
:10427000EEED3000FCF76EF9F8BDF8B5002425002E
:104280003E4EFF27E03E7F1C70206043444935547A
:1042900038000969A040084202D00120FFF752F817
:1042A000641C022CF0DBF8BDF8B504000D000026FC
:1042B000052801D0062C35D1394A601F0121176924
:1042C000814039422ED070212C4A4143E03A535C60
:1042D000002B01D05B1E5354FF235B1C83403B42E9
:1042E00005D0505C002802D10120FFF72BF8002DEB
:1042F00018D02869002815D02A49214A00208300B7
:104300005F18142343439B18DB78A34207D1286826
:10431000006E008B0009401C0126388002E0401C22
:104320000228ECDB3000F8BDF8B50500FCF70DF90C
:1043300006001D4915480AF07DFFFFF779F8009047
:10434000280010F041FD00242006000E290017F07F
:104350004FF9641C042CF7DB6846FFF794F8300033
:10436000FCF7F8F8F8BD11480088002805D010487F
:104370000178032901D1042101707047A80E0004BF
:10438000B80E0004FF7F000077777777BBBBBBBB1D
:1043900099999999E40F0004D00F0004E4010004F6
:1043A0005800000454C102001111FFFFBCE70200D5
:1043B00035C30200FFB583B0040016000F00911C46
:1043C0000C9800220291130069460CC10122F97970
:1043D000BB7909021943E92900D00022797BC9077A
:1043E000C90F26F0F0ED0500F879B979000208430D
:1043F000EA2803D1797B082211437973032109024A
:104400006218237A2100FF4F9C31012B1B8AB015C3
:10441000010000007C410000000200002D1AC9F9D3
:1044200008D10B000699300026F0DAED26E00120D5
:10443000000327E0637A022B15D1069B0A00069938
:104440009B1D300026F0CCED012040020543B079E1
:10445000C00718D10221200004F00EFF012812D15C
:10446000400305430FE0E62801D10B0000E0069B66
:10447000300026F0B6EDFF20401C05433868007977
:104480000028D4D1054302980622058030001A3056
:10449000694626F026EC07B0F0BDE04900204860F0
:1044A0007047DE49002088607047F8B50600DB4D94
:1044B000A868002845D1FF21D94800222D3126F0D7
:1044C00008EC04003DD001200221A8602173666140
:1044D000617B0143D3486173A061B0202081FF203C
:1044E0008D30825BCC480092006832000379032053
:1044F000000231189C32200026F076ED07001C20C7
:10450000251820817421280026F0AAEC30002F669F
:1045100017F061FEA870C448A860C448007E8006F9
:1045200004D4A878002801D0C148A86003206035D1
:104530002873200017F057FD002804D1200026F032
:104540008CEB0020F8BD0120F8BDFFB585B0070059
:104550000898002803D0B148406800287ED1FF2485
:104560002D3402E00120FEF7C1FD2100380004F0E7
:104570006AFA0500F6D028894619380010F026F9A5
:10458000002801D00C2000E004200290032000024B
:104590003A0039189C321300049101920091029A5A
:1045A0000221300026F024EDF07801210843EF21AC
:1045B000084006992C00C907C90E0843F070FF2077
:1045C000C01C3071000A70710020307070701C20A7
:1045D000288102201C3428737421200026F040EC2E
:1045E000200060300F9903904173266608980028D8
:1045F0000AD00120C007A060884801214160687B83
:10460000084368738B48A8610020208002980C281A
:104610001FD10799380010F0C2F9410709FBDF5F8D
:10462000010000007843000000020000D9F2774446
:104630002078490FC008C000084341072070490F87
:10464000380010F009FB0101206E028B1207120FD7
:104650000A430283206E017E090909010176207850
:104660009F210840207021003800079A002300E0B5
:1046700051E010F0AEF90E98714E002806D1039863
:1046800004210173380017F0B0FD1DE0002138004F
:104690001DF066FB0328A0701CD9307EC00604D52F
:1046A00067486030807A40060AD5787A022811D1AE
:1046B00004980921806989014018007F000709D505
:1046C0000321380017F04CFDA070A06801210903F8
:1046D0000843A060307E800607D4A078002804D06C
:1046E000A068012189070843A060380020F047FF37
:1046F000002805D038000EF026F9069920304173C5
:10470000280017F07AFC002805D1280010F0C0F925
:10471000280026F0ACEA09B0F0BDFFB5FF212D312D
:10472000050085B004F099F9060001D10120F2E7F7
:104730002800FF30297A87300129049002D0687A56
:10474000022804D1049928000FF09CFA02E0280006
:1047500010F046F86B46197EF3221140083100280C
:10476000197603D00807000FC03002E00807000FD9
:1047700040306B46187630892A00841903200002E5
:104780009C322918019200911F7E049B3809390739
:1047900002000390890F200026F034ECFF20C01C9B
:1047A0002071234A000A607150886B460101401C49
:1047B0005080607E227E000210430007000F0843F5
:1047C0002076000A6076A770587EE070687A02282A
:1047D0000DD10221280004F059FDE1788A06D20F9C
:1047E0001043C007DF22800E11400143E1701C20FE
:1047F000308137183000F46708997C3041730E9986
:10480000017303980C2802D16B46988B38800021E5
:1048100028001DF0A5FAB870300017F0EEFB012853
:1048200014D0300026F022EA80E70000106BDB7025
:10483000010000007445000000020000C00AA93415
:1048400054A900C0C0A900C024020004FF41000018
:1048500002140000101C030002140040F741000085
:10486000002062E70200884810B500680421002398
:10487000FEF799FC002804D10220FEF781FD0020FC
:1048800010BD012010BD8149096808718049486147
:1048900070477E4800680079704710B509F07DFBCD
:1048A000002801D1012010BD002010BD794870B54D
:1048B0000124006B400713D517F05FFF764D0021F0
:1048C0002E1F0AE0CA0053191B68921912689342FE
:1048D00000D00024491C012C08D18142F2D905E006
:1048E0006E48816AC06A814200D00024200070BDF9
:1048F00010B5FFF7DBFF002808D068482030018A98
:10490000808A814202D126F08CEB10BD002010BDC0
:10491000634870B5007800284BD1624800220068D7
:10492000082126F0AAE9002843D1FFF7E1FF00287B
:104930003FD05D4826F078EB04005B48082126F064
:1049400078EB05005848102126F072EB28188442B5
:104950002FD1564826F068EB04005448082126F071
:1049600068EB05005148102126F062EB28188442BC
:104970001FD14F4826F058EB04004D48082126F07F
:1049800058EB05004A48102126F052EB28188442C3
:104990000FD1484826F048EB04004648082126F08D
:1049A00048EB05004348102126F042EB28188442CA
:1049B00001D0002070BD012070BD70B501200EF047
:1049C0001BFF00285ED13C4C354D364E08E0207868
:1049D000401C20700120FEF7D3FC0120FEF79AFB5B
:1049E00028780028F3D130680022082126F044E915
:1049F0000028ECD102E00120FEF78CFBFFF778FFE6
:104A00000028F8D0284826F010EB0400264808219A
:104A100026F00EEB05002448102126F00AEB28189A
:104A20008442E8D1214826F000EB04001F48082109
:104A300026F0FEEA05001D48102126F0FAC363D3D4
:104A400001000000704700000002000034E21789F6
:104A5000FAEA28188442D8D11A4826F0F0EA04006D
:104A60001848082126F0EEEA05001648102126F025
:104A7000EAEA28188442C8D1134826F0E0EA040084
:104A80001148082126F0DEEA05000F48102126F023
:104A9000DAEA28188442B8D170BD0000640000042E
:104AA00054A900C040A6008040A3008034A9008023
:104AB00000A00080E4010004B0C00200E80100048E
:104AC0002402000404030004B4020004C0A900C0CE
:104AD000FF309D300E2210B526F0B8EA10BD10B59B
:104AE00004000C235843F449401800210A000B002D
:104AF0000EC0200026F0AEEA200026F0B0EA20002A
:104B000026F0B0EA10BDF7B584B015000400EB4AFA
:104B10000020009203900598290003AA02AB26F01A
:104B2000A6EA6B46187B052801D006284BD12D0636
:104B30002D0E280026F02AE926F060EA0600607AA9
:104B4000032806D16B461B7A3200290020000FF0A3
:104B5000ABFDFBF722FD0700FEF792FCD6496B4642
:104B60000190D74A187B383926F084EA6B46197BC6
:104B7000187A26F084EA6B46187BFFF74FFB6B46EA
:104B8000187B2A003100230010F02AFA6B46197AAC
:104B9000300026F078EA6B46187B310016F08CFD69
:104BA00001A8FEF798FC3800FBF7FCFC6B46197A6D
:104BB000059A200018F064FD6B46187AFFF78FFF06
:104BC000012007B0F0BD0020FBE7F0B585B0140070
:104BD0000600BA4A0F00002000920390210038001E
:104BE00003AA02AB26F042EAB74DB64928000AF004
:104BF00049FB6B46187B052801D006283AD1B349FA
:104C000028000AF03FFB2006000E26F0C0E826F040
:104C1000F6E9FBF7C2FC0400FEF732FCA6496B463E
:104C20000190A74A187B383926F024EA6B46197B95
:104C3000187A26F024EA6B46187BFFF71AFB30003F
:104C400010F0EAF86B46187A26F020EAA5A991B68A
:104C5000010000006C49000000020000F3FB15D4C5
:104C60006B46187B002116F0F5FC01A8FEF73DFC11
:104C70002000FBF7A1FC6B46197A3A00300018F0CF
:104C800009FD012005B0F0BD0020FBE7F8B50D00DF
:104C900006000024FBF78BFC8D4A07002906090E4D
:104CA0002832300026F060E80A280DD2884A002118
:104CB0000001283211548018C1602900300013F01F
:104CC0004DF90EF01BFD01243800FBF775FC2000A8
:104CD000F8BDF0B506000C00087885B00007400F5D
:104CE00016D126F0E2E90700022811D0794826F013
:104CF000E0E90500401C0BD03806000E2906090E1D
:104D0000020003902000029126F0D6E9002801D18C
:104D10000020B7E7032000023900301816F042FDEA
:104D2000220003991432300018F09FFC707A032897
:104D300009D1201D26F014E80106039B029A090EF2
:104D400030000FF0BBFC029826F0BAE9280026F0EC
:104D5000BCE95E4A0120A900383A5050C83A009296
:104D6000029B039A2100300026F0B2E9584A002144
:104D700014204843135C002B0DD08018C078A84243
:104D800009D1880053490022091D43189A70012255
:104D900012030A5202E0491C0229E9D30298FFF7E4
:104DA0002BFA201D25F0DCEF0006000E25F0F8EFB1
:104DB00026F02EE90500FBF7FAFB0700FEF76AFB79
:104DC0000190201D25F0CCEF02060299120E33004F
:104DD000280010F00FF9201D25F0C2EF0206330065
:104DE000FF330298120E8733290016F09EFC01A8AB
:104DF000FEF77BFB3800FBF7DFFB012042E7F8B54D
:104E00000024334F14206043395C002929D0C51990
:104E1000281D0EF0AFFB060023D069780022300079
:104E20000EF057FF6B46198800010907090F01436F
:104E300000911878000900011870A878009916F000
:104E4000D5FC2448A100001D0A186B461988901C47
:104E50000909118000210300917069781182DBB883
:104E600001000000684B0000000200000713AB695E
:104E7000300015F019FA641C2406240E022CCBD342
:104E8000F8BD70B505000C0026F0FCE80C226A4362
:104E9000134B99584118995020682160081A70BD29
:104EA00070B505000C0026F0EAE80C226A430C49B4
:104EB000521891684118916020682160081A70BDED
:104EC00070B505000C0026F0E2E80C226A430449A4
:104ED000521851684118516020682160081A70BD4D
:104EE000B80F0004B80E000450C102006666FFFF50
:104EF000BBBBBBBB7777FFFF10B50A68FE4B002A30
:104F000003D11868401C186010BD8A6A824203D021
:104F10005868401C586010BDF8480024026A002AF6
:104F20000FD08A4210D09A68521C9A6003220A71EC
:104F3000C26A002A01D0516300E08162C1624C6301
:104F400010BD012201620A71006A07228462EC48E6
:104F500040210068FEF758F910BD10B50A68002A14
:104F600010D0E64A536B83420CD1106A002809D056
:104F7000884207D100205063E14807220068802161
:104F8000FEF742F910BDF0B5050085B000F0C1FB99
:104F9000002000F0F7FB04007ED0286B2063D74888
:104FA0000490416A491C4162216000F0BAFB26F07E
:104FB0009EE803910290206800272E0039002036D9
:104FC000002803D1049A012050622060002323713D
:104FD000307A6071A079717A800889078000890F22
:104FE0000843F321A0710840B17A8907090F0843EB
:104FF000CF21A0710840F17A8907890E0843A0717A
:1050000069692869594008430DD02A6902986B697B
:105010000399121A8B410AD3029A2869039B696982
:10502000801A994102E0A869002800D00700029A7E
:10503000039B0021B8185941E160A060E869206134
:10504000286A6061686AA0612868E0616868206217
:10505000A868606220002030417B327B49089207BB
:105060004900D20F1143FD224173114027468A9E09
:1050700001000000644D0000000200001EEB7519E5
:10508000327B5207D20F52001143417302218173C8
:10509000317B090701D506218173327B0121D207BB
:1050A00000D102210173827B230000E00AE000921C
:1050B000994828333A00210026F026E8002806D136
:1050C000206001E000F037FB002005B0F0BD206853
:1050D000FBE7F8B505250E0000F05EFB04008C48E8
:1050E000016AA14216D1A06A002803D025F004EF7E
:1050F0000020A062002E66610CD0002223000092E6
:10510000854828333200210025F0FEEF03250028D2
:1051100000D104252800F8BDF8B50F00052600F0E1
:105120003BFB7B4C0500216A814215D1606B002856
:1051300003D025F0E2EE00206063002F0CD0744B0A
:1051400000220092754834333A00290025F0DCEF44
:105150000326002800D104263000F8BD70B50525CF
:1051600000F01AFB6A4C216A814207D1606B00286B
:1051700003D025F0C2EE002060630325280070BD37
:1051800038B50120FEF724F9614C2C20236AC15C5C
:105190005A6A1868DB6998470AF0B9F800F0C3FA50
:1051A000FBF719FA216A05000020086000F0C3FA35
:1051B00000F0D0FA20622800FBF712FA25F0A8EFE1
:1051C000216A002908D02E20425C0B000092544A2C
:1051D0005148283325F098EF032038BDF8B5052550
:1051E0000F0000F0D9FA04003CD0A06A0026002885
:1051F00002D025F082EEA662454D286AA0422FD14A
:1052000000F091FA2079012801D0022825D12671D9
:1052100000F091FA286A2030072F07730BD0286A14
:10522000082F006B0FD11A22002103F04DFD26201C
:1052300008F097FF15E0286A1922006B002103F09F
:1052400043FD2520F4E725F068EF286A1822006B5B
:10525000002103F039FD2420EAE700F06CFA00E0B9
:10526000266003252800F8BD70B504000425FBF76F
:10527000B2F906002648006AA04219D04583F04AD8
:1052800001000000604F000000020000EA03CBA410
:10529000217920680325032906D104212171E369BE
:1052A000626A0B2198470DE0A06A25F030EE0128D4
:1052B00008D1E369626A20680B2198470021A16246
:1052C000216021713000FBF795F9280070BD70B5A1
:1052D0000500042400F031FA280000F067FA0028E5
:1052E00002D0FFF7CBFF040000F02FFA200070BDC2
:1052F000F8B505000E0000F020FA094F0024382010
:105300006043C019816900291BD0002D03D04521BD
:10531000095C890712D4002E13D04521095C0BE0EB
:10532000E0E1020020E5020048C80200F14B000065
:10533000534C0000A0860100C90702D01830FFF7C7
:105340009DFF641C0F2CDAD300F0FFF9F8BD01219A
:105350000020CDE710B525F0EEEE002801D10120A8
:1053600010BD002010BD38B525F0E8EEFA4C16222D
:10537000206A0021006B03F0B1FC206A1522006B4B
:10538000002103F0ABFC206A4179002906D0817925
:105390000091417900980022FFF7DCFF216A02208A
:1053A0000871206A8069002808D025F0B4EE256ACB
:1053B000AA68EB68801A9941A9690860216ACB69DB
:1053C0004A6A086803219847216A4869002809D079
:1053D0008A6A002A06D100920B000200DF482833B7
:1053E00025F09CEE032038BD70B5060025F0AAEE2E
:1053F000D94D2C202B6AC15C5A6A1868DB69984722
:105400000400032811D1286A002E006B05D0162253
:10541000002103F063FC222004E01722002103F0A6
:105420005DFC232008F0A7FE00E00224200070BDF0
:10543000F8B5040000200D0016001F002060FBF7E7
:10544000D4F8C5490A6A002A0FD01379022B0CD16F
:10545000126A002A09D022600A6A12682A600A6A5F
:10546000526A3260096A096B3960FBF7C3F8F8BD0C
:10547000F7B586B004001600002513002F0003AA1C
:1054800004A905A8FFF7D4FF059B002B928096691D
:10549000010000005C5100000002000094186C1430
:1054A00014D06069002802D1306801256061039A38
:1054B000079901920091220000211E0004980B0020
:1054C000B0470700002D01D000206061380009B00E
:1054D000F0BDF0B587B006000F00002504AA05A9AD
:1054E00006A803ABFFF7AEFF069C002C0AD0049A77
:1054F000019233000022009705981100A047002870
:1055000000D00125280007B0F0BD70B586B00600B8
:10551000002503AA04A905A802ABFFF793FF059C89
:10552000002C09D0039A002101920A000091310059
:1055300004980023A0470500280006B070BD8B48E2
:105540002030017E491C01768849096A002907D06C
:10555000427E521C4276CB694A6A08680921184784
:10556000704710B5814C206A00280FD02030007B96
:1055700003280BD109F0DFFE206A012120300173DE
:105580007C48072200684021FDF75CFE10BD70B525
:105590000420764C236A002B4AD02C21C95C186861
:1055A000032501290CD10AF039F8002836D0012052
:1055B0000DE0206A2030057339E009F0BCFE2DE0D3
:1055C000022909D10AF02AF8002827D00020FFF785
:1055D00015FF0328F1D1ECE7032909D1012025F0BB
:1055E000C0ED206A042120300173FFF7C6FE1EE0E3
:1055F000062901D1062006E0072907D10021012054
:10560000FFF780FE0720FFF7CFFD10E0082901D14A
:105610000820F8E75A6ADB69984708E00120FDF79F
:10562000B5FD5448072200684021FDF70BFE03201A
:1056300070BD4E490420096A002907D00A79022A60
:1056400004D1CB694A6A08680521184770470528C4
:1056500001D2002801D100207047474AC0008018BD
:1056600006C906C001207047F3B587B00225079828
:105670004278037810021843012836D1079F891E0B
:10568000BF1C30E0F8780E1FB97800023C000843D8
:10569000B0422ADC60782178000208433F429B4EEA
:1056A00001000000585300000002000060F0D2A981
:1056B000FF3864381AD1201D25F084EB401E00907D
:1056C0002000083025F07EEB7D23DB00584301905D
:1056D00020000C3025F076EB7D23DB005843029050
:1056E000009801A90006000EFFF7BBFFE078A17843
:1056F00000020843311A3F1DC7190429CCD2FF20EC
:1057000064306B4698810C20D881079FBF1C012410
:105710001E48E1000E18601C7D2104903068C9000D
:1057200025F07CEC7D2105907068C90025F076ECB1
:1057300006901022380003A925F02CEB1037103505
:10574000641C052CE4DB2800CBE60D48006A002829
:1057500000D0012070470A48006A002800D00120CC
:1057600070470748002110B5006BC943FDF78BFD5A
:1057700010BD034810B5006BFDF78CFD10BD000097
:1057800020E50200F14B000048C802005CC10200A5
:1057900030B50020194D0D2104000300890169185E
:1057A00014E0E868401CE8601000526B8A62002A2E
:1057B00000D1CB620279042A0BD12A69521C2A61DA
:1057C0008362036003710020002C02D18A6A002AE0
:1057D000E7D130BD30B50400084D0020010038226B
:1057E0004A4352199369A34201D110001830491C51
:1057F000002801D10F29F2D330BD0000E0E1020002
:10580000454810B500680022652125F07CEA002893
:1058100000D0012010BD402101817047F8B500245F
:10582000160025000028009425D13000694601F0BB
:10583000E6FC04000DD06B4625611A88642A04D367
:10584000E188032001F00AFB02E0032001F02CFBB9
:1058500060816B461888002805D040202081188878
:10586000001FA08007E0002C05D031002000A5809B
:10587000FBF783FA00242000F8BDF8B50C000026E1
:10588000012B26D0254D042B04D00F2B2AD12448E0
:10589000210016E0224F143F08F0DAFB002804D064
:1058A00002200EF01EFA05F058FE2089BB8D4D89AE
:1058B00001000000545500000002000079080CD9D6
:1058C0000019C179827908021043E52801D1194FE6
:1058D00028372100380025F05CEC286807220121D8
:1058E000FDF7C4FC08E013482100143025F050EC0B
:1058F0006069022109F00DFD3000F8BD10B50024EB
:1059000020290FD065290BD10A48143825F044EC22
:10591000002804D1074825F040EC002800D00124DD
:10592000200010BD04484260FAE70000B4C0020045
:1059300060000004E40F000484C1020070B50C0094
:105940001500080025F02CECA8430100200025F0EC
:105950002CEC70BD70B5002425022800FF309F306C
:105960000004000C072125F024ECE81DFE300004A3
:10597000000C402125F01CEC2006000E10222021F6
:10598000FFF7DCFFFF35BF352804000C802125F030
:1059900014EC641C012CDFDB70BD70B50C0015002D
:1059A000080025F0FEEB28430100200025F0FCEB69
:1059B00070BDF3B581B00700FDF7D8F800242502CB
:1059C0002800FF30BF300004000C802125F0F4EBEC
:1059D0002800FF309F300004000C060025F0E0EBAB
:1059E000FA210840002F01D0012108430299002923
:1059F00001D00421084302210143300025F0D4EBFB
:105A0000FF35AD1D2804000C402125F0D6EB200603
:105A1000000E10222021FFF7C0FF641C012CCEDBFA
:105A2000FDF7D0F8FEBD012804D1F948405CF949E2
:105A3000400001E04800F849085A704770B514006A
:105A4000F64A0028D1609070D470F54A137F02D1D5
:105A5000DF252B4003E0012802D120252B431377BB
:105A6000220000F078FBEF481022022C01D0032C1A
:105A700002D1816B114301E0816B9143816301206D
:105A800070BDE648C0687047E44880787047E348D6
:105A9000C0787047E4487D2110B50068490124F0C2
:105AA00068EE8905800A0843E04900E0401E0A6864
:105AB000002A01DB0028F9DC002803D112782D1917
:105AC0000100000050570000000200008DE0B264A9
:105AD000D7494868401C486010BD704710B5FDF7B5
