:100000000100000000000000000200000447BA08E0
:100010001CF09FE51CF09FE51CF09FE51CF09FE5A0
:100020001CF09FE51CF09FE51CF09FE51CF09FE590
:100030000B450EB0CC5B0000505B0000545B000031
:10004000AC5B0000B05B0000B45B0000B85B00007C
:10005000C55B0000000000EA4E0000EA28008FE2C5
:10006000000C90E800A08AE000B08BE001704AE24A
:100070000B005AE14700000A0F00BAE814E04FE213
:10008000010013E303F0471013FF2FE1F4AB04006A
:1000900044AC04000030A0E30040A0E30050A0E323
:1000A0000060A0E3102052E27800A128FCFFFF8A44
:1000B000822EB0E13000A128003081451EFF2FE1E3
:1000C00004309FE503308FE013FF2FE1750400003B
:1000D00010B5040000F096E80068005D000706D542
:1000E000DF2C04D02000203810BC08BC18472000AA
:1000F000FAE710B4042A0ED303000B439B070AD17E
:1001000008C810C9A34202D1121F042AF8D2A34280
:1001100001D0001F091F002A02D1002010BC704727
:10012000D30701D0521C05E003780C78401C491C11
:10013000A34207D103780C78401C491CA34201D18B
:10014000921EF1D1181BE9E703000B43020070B4C3
:100150009B0710D10F4CE50100E008C208C91E1B27
:100160009E432E42F9D01906090E1170521C002927
:100170000DD01B0AF7E70C78491C531C002C147097
:1001800005D00C78491C5A1C002C1C70F3D170BC93
:1001900070470000010101010000A0E13A0000EBFE
:1001A00003002DE99A0000EB0300BDE8620000FAAD
:1001B0000F002DE9990000EB0F00BDE81CC09FE582
:1001C0000FC08CE001001CE30DE08F120FE0A001D6
:1001D0001CFF2FE101C08FE21CFF2FE100F04AF865
:1001E0006993030001402DE90000A0E1810000FABD
:1001F0000140BDE8000000EA0000E0E3060000EA7C
:100200001EFF2FE110402DE9090000EBC2A62F3B95
:1002100001000000FC01000000020000C092652304
:100220001040BDE8040080E21EFF2FE12D00000019
:100230000C109FE51800A0E3563412EF1EFF2FE1CB
:10024000D4FFFFFF2600020004009FE51EFF2FE100
:100250001EFF2FE13044050010B5C046C04608001F
:1002600007D00178002904D005A100F024E9002876
:1002700004D10448784410BC08BC18470020FAE7B1
:1002800043000000FCA8040010B5C046C0460400AE
:10029000C046C0462000FFF7B0EF10BC08BC1847AE
:1002A0000E40A0E1660000EB04E0A0E101402DE972
:1002B0007B0000EB0040A0E10140BDE813402DE9C8
:1002C0000100A0E3121DA0E3081084E5000084E50E
:1002D0001340BDE80010A0E1040084E50EF0A0E1A9
:1002E00010402DE903002DE96D0000EB0040A0E176
:1002F0000300BDE8042094E50D30A0E100E082E0B9
:1003000003005EE1002081E50B00008A0E3093E0DF
:10031000011A8EE26330A0E1071081E20730C3E3E7
:100320000710C1E3030051E10310A081041084E52C
:100330001040BDE8020041E01EFF2FE10020A0E1D7
:100340000000A0E30000A0E11040BDE81EFF2FE187
:10035000F0B585B0C046C04605000C004AF0C8E8BC
:10036000002001950294C046C046039001A8FFF703
:10037000B2EE040001A80D00009303C81600C046A9
:10038000C046C046C04605F00CED00210800C0463E
:10039000C0460700FFF758EF0490002107600800EF
:1003A000FFF75AFF411C0498416000210800C04635
:1003B000C04601000498816000210800C046C04684
:1003C00001000498C16000210800C046C046010039
:1003D00004980161C046C046C046C046C046C046FB
:1003E000C046C046C046C046C046C046C046C046DD
:1003F000C046C046C046C046009B05B02000049CD5
:1004000029003200A646F0BC01B0704710B5C046C6
:10041000C0460020C046C046C046C0460F80302FB0
:1004200001000000F803000000020000347ADB9EA7
:10043000C046C04610BC08BC184700000000E0E3FE
:100440000210E0E31EFF2FE110402DE90000A0E1C3
:100450001040BDE81EFF2FE10E50A0E1430000EB6D
:1004600005E0A0E10050A0E10700C0E30D10A0E10D
:100470000A30A0E100D0A0E160D08DE220402DE95B
:10048000335D00FA2040BDE80060A0E30070A0E307
:100490000080A0E300B0A0E30710C1E305C0A0E125
:1004A000C009ACE8C009ACE8C009ACE8C009ACE8D8
:1004B00001D0A0E11EFF2FE104009FE51EFF2FE108
:1004C0001EFF2FE120440500030010E30300110389
:1004D0001700001A00402DE984E09FE5042090E415
:1004E000043091E40EC042E002C0CCE18EC31CE0B7
:1004F00003005201F8FFFF0A0040BDE8030CA0E131
:10050000020C50E0FF0E1C030700001A0308A0E1D4
:10051000020850E0FF0C1C030300001A0304A0E1D2
:10052000020450E0FF081C03020053006000A01109
:100530001EFF2FE10120D0E40130D1E4010052E39D
:10054000030052210400001A0120D0E40130D1E45C
:10055000010052E303005221F5FFFF0A030042E0CD
:100560001EFF2FE10101010110B410BC7047000013
:1005700000009FE51EFF2FE11044050004009FE5E9
:100580001EFF2FE11EFF2FE11444050070B505008A
:100590000C0036F0CDFE002814D0686900F022FF70
:1005A00000280FD060792179000600140843203418
:1005B0000019C1798279080224491043884201D187
:1005C000012070BD002070BDF8B5050000F003FFEC
:1005D0000027FF43002808D136F0AAFE002804D1E6
:1005E000686900F0FFFE00282DD02989481942795A
:1005F0000379120612141A4314180E315018060605
:10060000360E280000F0E2FE002807D1617D227D31
:100610000802083610433606360E03E0607B217B65
:100620000002084300F096FE00280CD067083764EB
:1006300001000000F4050000000200002D8205EE1C
:100640002200A11D28002E8111F028FF002804D0CF
:10065000280000F097F80020F8BD3800F8BD000031
:10066000888E00002A4810B504684068042B01D128
:100670004C6102E0012B02D14C6105F0AAEB002095
:1006800010BDF8B50D001700214E1C00052B01D040
:10069000162C14D128894019C17882780802104399
:1006A00004D1280000F06EF80220F8BD2800FFF702
:1006B00095FF002801D10120F8BD052C01D0172C91
:1006C00004D13A002900306805230EE0032C06D13E
:1006D000280000F082FE3A002900032305E0022CE6
:1006E00005D1B0683A002900022305F072EB002022
:1006F000F8BD70B5040000F00DF80500012020736E
:10070000200005F06AEB280000F009F870BD000039
:10071000D0AC0400802010B505F062EB10BD10B520
:1007200005F05EEB10BD10B5040005F05EEB206037
:1007300010BD124870B50468114EA10706D50021FE
:100740000161B26D01209047022084432006000F12
:1007500003D0E02084431020044300250AE0E00792
:1007600006D0A8003258002A02D021002800904765
:1007700064086D1C002CF2D1002070BD00280080A0
:1007800040060004002810B507D00169002905D1F2
:100790004189C088032205F02CEB10BD05F01CEB4D
:1007A00010BD10B50189C1220818418D0024D20066
:1007B000914208D10100062212310C30FFF7B7FC3C
:1007C000002800D10124200010BDF0B50400002055
:1007D00085B0070003900290019020890126051939
:1007E000A8780007800F022800D0002660694079B1
:1007F00002280DD12000FFF7D4FF012808D12020C6
:10080000A7802073FF490868401C086005B0F0BD50
:10081000A0880028FAD0002E1DD0A878010902D0A7
:100820000009082817D1228920002A3010180288D0
:10083000F54B61699A420ED1C0780328BBDF0E3FA9
:1008400001000000F007000000020000D96ABB535D
:100850000BD1002909D00D2080010818406A00281A
:1008600003D080300188491C018000F09BFD0028E6
:100870006CD0280005F0CAEA00285FD1002E14D001
:1008800001222000694639F0C9F900280DD00098EE
:10089000002800D00120002850D00720019000211E
:1008A0004F2036F0B3FA039009E0200001AA02A914
:1008B00036F096FC002800D0012000283ED000F041
:1008C00071FD002849D0D648012505613FF092FF0F
:1008D00002F020FE00280CD142F010FB002808D1C5
:1008E000D0480760D0480780CD488570032042F08B
:1008F000B1FA6B469A880399FF2036F0B1FDCB4DD3
:100900002888002804D0CA4904200856401C0AD070
:10091000022501200CF04FFC6D1E09D0C048007A62
:100920000028F6D104E036F005FCBD482F800772A0
:100930001D2042F08FFABA48C7600EE06B46187A65
:1009400000280AD12020A780207369E7002E04D058
:1009500002222000694639F061F902F0DEFD00282C
:10096000F3D0A0880028F0D036F0C6FF0028ECD1E4
:1009700037F0E4F80028E8D1002EE6D020890019ED
:10098000C178CA0701D1801D00E01230A94AD37B8B
:10099000002B0ED01289092A0BD10078C00708D08D
:1009A000880602D53FF0BEFE3AE71B2042F052FA1D
:1009B00036E702F044F80128C7D03FF0C3FE2FE726
:1009C0007CB50C00150049792379090609141943EF
:1009D0000B19818842692433602914D96039203287
:1009E0008180517DC906CA0F00922A0001A905F035
:1009F00012EAA071000AE0710198001B2071000A40
:100A0000607101207CBD00207CBD1A00D8E782887F
:100A1000602A10D9603A828048790A790006001469
:100A2000104324300871000A4871E62088710020C4
:100A3000C87101207047002070471FB501AA04004B
:100A4000009202AA03AB38F083FB0198886500FF8F
:100A500001000000EC090000000200001E73B90E46
:100A600002040298121401040914200038F076F9E7
:100A700020000399C0304183019981830299C18389
:100A8000200002F0CFF91FBDF3B597B0050000209C
:100A900009900690059018980A27002802D1002096
:100AA00019B0F0BD28896E69411920220CA805F003
:100AB000C0E90CA808AB0B90D87CC1076348684418
:100AC000169002D10B98801D00E016980790189898
:100AD00020301590007DC006800F012807D9189896
:100AE000183005F0AAE9000701D5012400E0002430
:100AF00008AB997C00200A07920F022A03D109094A
:100B0000090700D50120204324D0FFF717FE0290EB
:100B100015984F4A007E41070B98490F0C3005F09D
:100B200090E907000A2812D2002C05D04849380164
:100B30004018C168491CC160A888002807D14549F0
:100B40003801411810AB188900093FF099F9029853
:100B5000FFF7F9FD288920216C18203829812071A0
:100B6000000A10AB6071188900092072000A6072D7
:100B7000B0792070F0796070A888002802D1287BB5
:100B800020283ED108ABD87C800601D501200590F5
:100B900008AB987C0107890F022932D11599097E8B
:100BA000C90620D5000900071DD52B48007800286C
:100BB00019D037F05DF8002815D0284800680028C3
:100BC00011D02748006800280DD03FF033FD0028E1
:100BD00009D03DF02DF8012805D0224800680028F2
:100BE00001D10120069002F0AAFC002809D00B9840
:100BF00005F016E9002804D1022003F0E5F93FF0E2
:100C000039FE18993000FFF722FF3000C0301E2156
:100C10001490415E080002F064F8207314981A21C1
:100C2000415E080002F050F860731DE0700000049F
:100C3000888E000008F6040010B20400ACB1040075
:100C40009CB10400F0AC04007802050042000000F2
:100C5000D00A0004080D0004D6B00400BAAA1FC8C8
:100C600001000000E80B000000020000EA9B07B34F
:100C7000E8B00400E4B0040038B1040008AB987C8C
:100C80000009000704D51598007E4007400F00E0DA
:100C9000FF20A072A07A0490A888002804D00B98A6
:100CA00005F0C8E8002852D00027A770E770A88890
:100CB000002802D1287B202845D1049836F03CFF3B
:100CC000002809D00598002804D00021300013F036
:100CD00037F901E0F848077007980078C00715D188
:100CE00025F028FD00281598007E07D0C006C30F08
:100CF000069A0599300025F0B9FD06E0C006C30F3D
:100D0000069A0599300024F0ADFB069008AB987C5C
:100D10000599020930003EF0BBFF0698012812D168
:100D2000E648008800280BD0E548002200684621EC
:100D300005F094E8002803D0E2490120087002E0A1
:100D4000162042F09BF82800FFF73AFDB1E615980F
:100D5000007EC00905D0189A21002800FFF76BFE1D
:100D600005E00B9B189A21002800FFF762FE00287F
:100D70007ED0A888A070000A22000B32E07018987C
:100D8000D11C05F070E87079022872D1300003F0B0
:100D9000D7F81121490108904018007802900020EE
:100DA00010AB0A909878C00708D001200A900298EA
:100DB000C00779D00298800776D41FE0169803F018
:100DC0003BF9002809906FD0707902286CD10998FE
:100DD000407AC00668D50999F079C97988427ED1F0
:100DE0000A2F61D302984007029802D4C0075BD053
:100DF00004E0C007BCD00298400739D4B2480022B2
:100E00000188B248032302F046FC0028019048D034
:100E10000198A98881800199AC2008810199082056
:100E2000087301980F21AC30029005F020E8029879
:100E30001021017100214171E079A279010202982B
:100E400011438171090AC1710898406A012808D1CB
:100E50000998002805D0707A000702D50299A07A77
:100E600008736079217900060014AA8861AEB07613
:100E700001000000E40D000000020000F363D9C38C
:100E8000084301E058E019E001190298103004F01D
:100E9000E4EF0199F06848610299F079487002998D
:100EA000B07908700299A8888870000AC870019803
:100EB000042100F0AFFA0A9800283DD0FFF752FC59
:100EC0000390894B87481C6800222900006816237C
:100ED000A04704000398FFF74AFC022C3AD0012CEB
:100EE0002ED002F040FB002802D0052041F0D0FFB8
:100EF00000E01CE00A2F0BD27C4938014018083072
:100F000003C8002358405940084301D035F0F6FF8C
:100F1000FFF728FC744B070072481C680022290068
:100F200000681723A0473800FFF721FC12E0029861
:100F30000007C3D50A2FC1D30020A070E0700CE7D2
:100F40000A2F07D269493801411810AB18890009E6
:100F50003EF0AAFF049836F0F9FD00280CD0059861
:100F6000012804D10021300012F0F4FF04E00598BC
:100F7000002801D15549087007980078C00715D19D
:100F800025F0E2FB00281598007E07D0C006C30FAD
:100F9000069A0599300025F073FC06E0C006C30FE1
:100FA000069A0599300024F067FA069008AB987C01
:100FB0000599020930003EF075FE0698012812D10D
:100FC0004348008800280BD0424800220068462190
:100FD00004F04EEF002803D03F490120087002E0E2
:100FE000162041F055FF01206EE5F0B500250C8B71
:100FF000097E17880907059E2409090FA74209D110
:101000001A88521C8A4201D1B14201D38580F0BDB9
:101010001980F0BD0029F9D11480F9E7F0B500205E
:1010200097B004000490019002F0AAFA002806D0BC
:1010300000F0D6F90028FAD02D490120C86098E1C7
:101040000020039023F036FB10AB197B0020C9066B
:10105000890F012902D90C980007C00F029005984A
:101060000189081806A901F0AEFD1698002805D1DF
:10107000059800218180FFF7ADFB7AE14DF9714CB5
:1010800001000000E00F000000020000078B677EF7
:1010900016980C3002F0E4FF040005D116990120E7
:1010A000123102F0FBFF04001699200002F070F8E4
:1010B000002801D00024E5E7002CE3D005994C611D
:1010C0006079022820D1200002F073FF0C300190DB
:1010D000607A169AC0060599C00F04F0E0EE27E08A
:1010E000D5B00400EC060500D0AC0400D1B004007B
:1010F000BAB104002C010004D4AC0400D0AE04004A
:10110000080D000408F604002079169A01280AD177
:1011100023009E3304F0C6EE2079012808D1200078
:1011200002F090FF04E023009E33012004F0BEEEA5
:10113000059801890E18F178C90701D1B51D01E0A4
:10114000350012350D2189016718796A002902D00E
:101150000A6B521C0A632978C90705D0796A0029ED
:1011600002D04A6B521C4A630299002949D18188F6
:10117000002970D00A22009285229200A318921EA4
:101180001699A218FFF73BFF0598818800290DD119
:10119000200006A9FFF779FC0598FFF725FB786A80
:1011A000002802D0016A491C0162ECE0A17AC9075B
:1011B0001ED0F078C10712D1800710D53B20000166
:1011C0002118300006221230FEF7E3FF002806D176
:1011D000059988802878C207D20F012104E0287879
:1011E000C0070ED100221100200007F003FE08E026
:1011F0002978C90709D03B2109016218310004F0A0
:101200005AEE059880880028B3D06079022827D14B
:10121000200006A902F062F916990198C978007DAC
:10122000C906C90F884202D0200017F0BDFF200078
:1012300002F010F8200002F045F8012803D11699B9
:10124000200045F03FFC01984030007D032803D08A
:101250000599002088807BE005988088002877D059
:10126000200027F0A5FE2878C0070AD123F080F8D7
:10127000002806D1059808AB8188DA7C06A824F0FE
:101280004FF9169804F01AEE00281ED07F4E54CB6A
:1012900001000000DC110000000200007990C0CEC7
:1012A00005988188403981801699097E090707D100
:1012B0001699C978490703D416990988818051E0A5
:1012C0004B4A009201894B4A4B4B091804F004EE3B
:1012D000002862D0059001890818169042E01698FF
:1012E0008079C00701D0F86800E03869002801D192
:1012F000049801E008300490002843D00498C07995
:10130000022801D003280FD185229200125B169982
:101310000120002A00D0002004F0E2ED049A059894
:1013200006A900F07FF917E0012801D0002828D194
:10133000012000F0F5F80028FAD1049A06A905A8C2
:1013400008F067FD002804D10598002825D0002169
:1013500081800398002805D00498C079022808D01D
:10136000032806D00598FFF76CFA059806A9FFF741
:10137000B3FB28F0DDFF00280FD0012013F0AEFCF6
:1013800014E0FEE7786A8168491C81601698BF21E5
:10139000C07808401699C87064E70121002006AAA9
:1013A00001F047FC0028059000D05DE6134980203D
:1013B000C043086104F098ED002802D0042013F027
:1013C0008DFC0F490020C860002C086106D00F205A
:1013D000800120188068032137F09EF917B0F0BD16
:1013E000084A01000120914200D00020704700000F
:1013F000A4C701C0ACC701C030CB03C000A50080AA
:1014000008F60400888E00000A4900204968002977
:1014100004D009490978002900D001207047054906
:1014200000204968002904D003494978002900D0E8
:1014300001207047E8AC040008F60400022110B552
:101440000173010009481C220068042304F0FCEC2D
:1014500010BD4069C068704710B5406902F0F7FDE3
:1014600010BD10B540690AF060FE10BDD4AC040098
:101470000F21890140184068002803D02030407DAA
:10148000C007C00F704703000A0000B5FFF7F0FF68
:10149000FD21002814D00F2080011818DFDEF13C58
:1014A00001000000D8130000000200008D787E7358
:1014B0004368C0335A6140680300C033002A08D033
:1014C0002030407DC00701D0186909E0907A0840BB
:1014D000907200BD002AFCD0187A4307F6D5C007E9
:1014E0000028F3D100BD0000034800688030006888
:1014F000C007C00F7047000040AD040038B51400AD
:10150000049A009222000BF0DCFE38BD10B50BF0FF
:101510007BFF10BD10B50BF0C1FE10BD10B50BF078
:1015200087FF112800D1122010BD10B50BF098FFD5
:1015300010BD0000FF4980000858704770B5840056
:10154000FC4D2859002803D12EF016FA012028510D
:1015500070BD30B500250168FF242A00641CA1423B
:1015600000D04A1C41688A4201D1002208E02422AE
:101570004A432B0012180C32A14200D04B1C43608E
:10158000100030BD30B500240A682300402A01D085
:101590003F2A04D02300402A00D0531C5B1C4D6816
:1015A000AB4201D1002030BD2300402A00D0531CA3
:1015B0009A000B6051188860012030BD016800233B
:1015C0001A00402900D04A1C41688A4201D10022F9
:1015D00006E08A0012189268402900D04B1C436034
:1015E0001000704770B50500FFF7DAF80400D14825
:1015F00000210068002814D1CE48CF4B2038056167
:101600001A68402A00D0511C5868814205D08000D9
:10161000C0188068002800D0FEE7280008F0E0FC31
:1016200006E0C5492800FFF7ADFF002800D1FEE71E
:101630002000FFF7BAF870BDF7B50D001600FFF7F0
:10164000AFF80400BB48406800281AD1BB4A00210B
:101650001068C31FF93B00D0411C5068814205D07F
:101660002423584380180C3000D0FEE732002900B4
:10167000684608F0A5FC00280CD1009800F07CF921
:1016800008E0AE4B00983200290000F00EF9002867
:1016900000D1FEE72000FFF788F8FEBDF0B5032279
:1016A0000021A44EA34F203E336812023A6A041E62
:1016B00001000000D4150000000200009480A00387
:1016C000012B85B065D1002863D1A24B18689043E7
:1016D0001860316039603069018945690C18B1685A
:1016E000002D4A88019203D10021FFF752F8D8E07B
:1016F0006B465A7952071DD46979022902D029799B
:10170000062904D1290001F024FE0028EFD16B4600
:1017100018790007800F022808D1316922002800BB
:1017200000F0A5F90028E2D13069DDE7306928F042
:101730009BFCB6E00A88080020301018E36EC01C3D
:101740008608D879B60002281BD1687902280CD106
:101750008879C00709D0280002F024FC0721C901BC
:10176000401840880206120E00E000223088002156
:10177000103830800092E36E2268300008F0A4FB3D
:1017800093E003287ED122680021300008F0F0FBAE
:101790008BE07368012BAAD10128A8D16E4B186881
:1017A0001C6894431C60716079606C490C68083156
:1017B0000291B1696569491CB161010702D5F169FE
:1017C000491CF161002D19D0010765481AD57169CE
:1017D000491C716104F06CEB80780007800F0228CF
:1017E0000CD10D2080012918486A002806D04268D3
:1017F000521C4260486A0169491C0161200000F0E6
:10180000C5F84EE0039004F054EB8079C00709D18D
:10181000F1688879800705D56879022802D0280008
:10182000FFF745FEF068C079022805D1039804F05F
:1018300040EB0188103906E0032805D1039804F035
:1018400038EB018822390180A0884038A0800398B5
:1018500004F02EEB80780007800F02281ED1414A49
:1018600000922089404A0119404B200004F048EBC7
:10187000002816D004000D2080012818406A002896
:1018800004D000E014E0416E491C41662000FEF7E0
:10189000ECFF02992000FFF733F902E0200037F057
:1018A0001BFE2B49294800F07BF83868002804D13A
:1018B0007868002801D12EF05FF805B03CEC960A5C
:1018C00001000000D01700000002000060681EBE8A
:1018D000F0BDF8B51C000E001D6807000021FF23B5
:1018E00008005B1C9D42944601D0FF2D04D00800E7
:1018F0009D4200D0681C401C6268904201D10020CB
:10190000F8BD9D4200D0691C242048432160001985
:10191000C76021682423594360460919086120687B
:1019200018225843311D0019143004F0C8EA206809
:1019300024235843011930002030037E0B77020026
:10194000407E4877206824235843127D00192030B8
:10195000C178C7231940D206920F13E09800000403
:1019600014CB040020CC040000A0009000A800903C
:101970000C08000454080004A4C701C0ACC701C08F
:1019800030CB03C0D2001143C1703000403004F0AE
:101990009AEA2168242359430919C8620120F8BD35
:1019A00010B50169002902D1FEF746FF10BD37F0DE
:1019B00091FD10BDF3B581B0254835E00298FFF7E1
:1019C000DCFD040034D06768002F2AD0029825007F
:1019D000816808350E000836009118222900301D54
:1019E00004F06CEA3100287A20310876687A48766B
:1019F000087DE7221040EA7B18239206920E1A40D7
:101A000010430875E81804F05EEA3100403104F034
:101A10008EEA00993A000831200008F0E5FA002823
:101A200006D12068FFF7BCFF094840680028C5D0F0
:101A300007480068002809D10198FFF7D3FD002866
:101A400004D003492039086108F0DEFAFEBD000029
:101A50009800000410B50C008968CA0010D5012256
:101A600012079143A160217801224907490F20F014
:101A7000D6FE0101E06D028B1207120F0A430283AA
:101A800010BD70B50D0004001100FFF7E3FF2079D1
:101A9000012804D10121280043F02CF870BD23F067
:101AA000DBF8002822D0288944191434280003F0D8
:101AB00085FBE16928003BF0C9FC002811D022F029
:101AC0007FFC002802D022F0E3FA08E02C9BA386DA
:101AD00001000000CC19000000020000A7711CE307
:101AE00036F016F9002802D0002023F049FE24F039
:101AF000C9FA012070BD280003F083FB002070BDEF
:101B0000280003F0A8FC70BD70B504000089051919
:101B1000E86E002813D0C179022907D1807AC00766
:101B20000DD0E86D01881039018004E0032906D149
:101B3000807AC00703D02000FFF772FD70BD666990
:101B4000002E08D07079022805D13100200001F064
:101B500014FC0128F2D02A0021003000FFF79BFF7F
:101B60000028EBD1200048F0ADFA00212000FEF75C
:101B700024FE70BDFFB58BB001241600301F159DEB
:101B8000149A0228FDD2361F280036066030360E21
:101B90000A90F00080194001FF4B0490C0181023F8
:101BA000B3400990FD48059340691700034008932E
:101BB0000423B3409E4603409C46059B1C3F0343C1
:101BC0000793059B984306900998FF301D30012923
:101BD000039065D10898F14B0028029636D16046F3
:101BE0000028764655D1EC480499405C00281FD166
:101BF0002878002241070B98490F20F01AFE6B4607
:101C0000198800010907090F01430091187800099C
:101C10000001187000990E983BF078FF0A98017A3D
:101C20000E9804F092E9DD4841690E43466130E0C8
:101C30000798DA4906434E6102990B9828F07EFA1C
:101C4000002809D109980E9941704FE0614600299A
:101C5000704606D0029953E038000021FEF7ADFD32
:101C600047E00699CC4F084358610298C6003618E1
:101C7000760108E00198A9788170B95D1C38491C8B
:101C8000B955FFF741FF029801A928F013FB00287E
:101C9000F0D0002C5AD00298C3001818400151E02F
:101CA000022953D10898BD49002824D16046002854
:101CB000754642D0B8490498085C002809D10A98B2
:101CC000017A0E9804F044E9B4494869A843486190
:101CD00033E00798B149A84348610B983D2CC57A79
:101CE00001000000C81B0000000200005399A25E22
:101CF000310028F02DFA0028B8D109990E984870C3
:101D00000398FEF77EFD00242AE06346002B704610
:101D100006D131000B9828F01BFA0128F3D1A5E772
:101D2000069AF7008243BF197F014A6109E00198D2
:101D3000A9789E4A8170D15D1C38491CD155FFF7A6
:101D4000EDFE300001A928F0BFFA0028EFD0002CEA
:101D500006D0F00080194001944A115C491C1154CE
:101D600020000FB0F0BDFFB583B00C00FF21890546
:101D70000500C813019034200091405D7F270026A4
:101D8000FF00FE2806D0218D4006B943800D014397
:101D900021850CE0287901280BD1280020F04EFC89
:101DA000807D002805D1208DB8430830208501268C
:101DB0000EE023200001281804F0D8E8218D400609
:101DC000800DB9430143218506980078C00728D0CB
:101DD000E069012109030843E06106990978C90710
:101DE0001FD0FF21491C084320218843E061687906
:101DF00002280AD10598002803D0059804F0BAE813
:101E000008E0280003F0B8FA04E0002E2BD12800E7
:101E10003AF091FF218D4006800DB94301432185A1
:101E200021E0687902281ED1208D00218005420E14
:101E3000012004F0A4E8009B019A184000231140FF
:101E40005940584008430ED0280002F0EEF8803088
:101E5000007AC10707D0800705D5E0692021084333
:101E600080218843E061208D8105490E032906D831
:101E700050490978890602D5B8432830208507B033
:101E8000F0BDF8B5141806001C2035180029308163
:101E90001DD0607821780002084300271E2803D94E
:101EA0001E382070000A01E0380A27706070702127
:101EB000280004F068E870690079032803D039F03D
:101EC0004DF9012802D10520A87000E0AF70E0783C
:101ED000FB210840E070607E217E0002084300077D
:101EE000000F2076000A6076207E0721076E96D5C7
:101EF00001000000C41D0000000200004A617C2EA9
:101F0000000900012076287808432870EC65092034
:101F100060352872300027F0ACF9002802D130007B
:101F200028F0CAF8F8BD70B5284804F03AE8040073
:101F30001FD0208905196978287802F090F80028C8
:101F400010D0606168792A7921890002104308184D
:101F50000204120C01212000FFF79DFF012012F066
:101F6000F9FE02E0200003F0B0EF19490868401CB8
:101F7000086070BDFEB5134841698906890F7DD0A0
:101F80000F4F00240F4A1020A040516903000B425C
:101F900071D0E5002D196D017B5D002B6BD1814364
:101FA0000420A0400842516147D00A490A4815F070
:101FB00034FF0A4A0020EE1914214143535C0FE01C
:101FC0005808000450AE040042740004E40D0004FC
:101FD000D4AE040011111111BBBBBBBBA80A000495
:101FE000002B20D089188978737899421BD114234B
:101FF00058438118081D029102F078F802990022D6
:10200000497820F02AFC6B46198800010907090F5E
:102010000143009118780009000118707078009948
:102020003BF088FD02E0401C0228C5D3201D0106BC
:102030007078090E03F09CEF0AE0F849F84815F0B3
:10204000ECFE201D0106E8194078090E03F094EF1C
:10205000F34E0AE0F349300015F0DFFE01981C381A
:10206000FFF766FD785D401C7855200001A928F037
:1020700035F90028EED0641C022C83D3FEBDF0B5E8
:102080000020C5B0E94C13901090E7482061200073
:102090000C22012110300BF096F828F03DF9E448AD
:1020A00044900022D243E14D0092E249A868082200
:1020B0003FABFFF755FA3F980028F2D0400607D50E
:1020C000002011F09BFCDC4948684A061043486038
:1020D0003F98C0060AD545F0BFFBD84807220068E4
:1020E0001021FFF749FA372040F022FF3F98800582
:1020F00015D5002020F0EAFA04001D262F0F1985BF
:1021000001000000C01F000000020000BE89C29351
:1021100076010CE0A019017EC80704D0480702D55B
:10212000200045F0CDFD200020F0DAFA0400002C5C
:10213000F0D13F98000601D526F0A8F83F98C005D9
:1021400001D526F01FF93F98810602D5C14A00212A
:102150001170400501D500F00BFD3F98400701D5F7
:10216000FEF7B6FF3F98800711D503F028EF01284E
:10217000A1D004E01298AC220021FFF796FEE86897
:102180000422002312A9FFF7FDF90F28F2D13F988E
:102190000921084271D0B0480168B0480068814206
:1021A00001D0FFF7CAFE02F012F8002883D0A86918
:1021B000002880D127F0D8FE0028FAD140F07EFE1A
:1021C000002884D003F0FAEE0128D1D0FFF7DCFE1E
:1021D0001398002500284FD0002007000990079091
:1021E0009D4801689D480068814201D0FFF7A5FE27
:1021F00013980F220189091892484091083803F07A
:1022000086EE9049409808398A8810180C904888C2
:102210007D229201904200D3FEE78A480838007B75
:10222000082803D3874900200839087385480C998A
:1022300008380FAA00F0B8FC0128089012D108ABAA
:10224000187F00F0ACFC070080300569280001F021
:10225000DBFE3E0014363900703115970120B9615C
:102260001190D3E00C99139800F0A9FB050005D15B
:1022700013980021FEF7BFFAEFE222E3280001F0F5
:10228000C3FE040068790C990126032802D12900B5
:102290009E31002606220AA803F038EE6948704BEA
:1022A0000838007B0FAA0AA903F08CEE00280690DC
:1022B0001DD06C480068002819D06B480068007970
:1022C000002814D15F4908AB187F2A000839330071
:1022D00000F098FC07007021159003F068EE159847
:1022E00039000600143670318161012046E001207A
:1022F000099016A87021159003F058EE37A8159E86
:102300001C90504814360838407BC007C9562F9B94
:1023100001000000BC21000000020000B656334E50
:1023200028D027F081FE35F069FB00281BD05448E7
:102330000078002817D122F019FD002811D02800BC
:1023400047F0AAFA0121009143490022019208397D
:10235000497B02000907CB0F0121280011F09EFCE8
:1023600001E024F041FC35F06BFC00288AD040F0FD
:1023700053FF87E72879012802D06879022804D121
:102380000C99280001F046FF02E0280001F04EFF02
:102390001190E27F310028000AABFFF702FD3949B6
:1023A00001200979C90609D46979022905D11321C7
:1023B00049016118097B090700D400200D90287994
:1023C000002816D1280020304390807D000710D4CB
:1023D000308D8005400E03F004EE0400122003F05F
:1023E00000EE844205D84398807D8007C20F01210A
:1023F00004E03620405D0D998007C20F300003F0E5
:10240000F4ED0698002817D0308D8005400E03F0BB
:1024100001F9002807D00C49C943C84315F011FD44
:1024200001200E9034E01849074815F00AFD0220FB
:102430000E90012009902BE01449034815F001FD8E
:102440000020F5E722222222BBBBBBBB3333333350
:102450000CFC040050AE0400A00A0004FF0F0000B2
:1024600040A50080B8B0040099B10400C8AE0400D3
:10247000D4AE0400A80A0004B400000400BA0400AA
:10248000D4B004004274000455555555666666661E
:10249000FA490120087000F04CFE089A0092119A47
:1024A00040983300290000F066FA139A1C2111812C
:1024B0001399159C1C3141910021A18071801399C1
:1024C00000064D61159CEE4932944A88000E121A9E
:1024D00030AB1A82409A898810180818339000206F
:1024E000D8746879032801D001280CD1280001F0A4
:1024F0009DFE002807D0E248017B280001F0A2FEE3
:10250000DF49087312E02879012804D1280001F07E
:102510008DFE002802D16879022809D182028A91B1
:1025200001000000B82300000002000042BE8DF34D
:102530000C99280001F078FE002803D0D548007BD4
:1025400030ABD8740E98002807D0329801218068EB
:1025500009070843329988600FE0119800280CD0D1
:1025600030ABD97C0122280020F095F930AB198BD3
:1025700000010907090F01431983089800280DD0AD
:10258000C44807A9C0886A460006000E83C2290015
:10259000109B14AA32A802F064FA10E0119907A85F
:1025A00002AA83C2BB480E9AC08801920106090E96
:1025B0000091109B139914AA32A801F095FF718C19
:1025C0000028E18000D167E61499002910D0A168A5
:1025D0000122D2061143002DA16009D00D218901ED
:1025E0006918496A002903D060310A8B521C0A839A
:1025F000E065449803F0A2EC00094499000103F05F
:10260000D2EC318D10228905490E114308434499BB
:1026100003F0C8ECE0609F48407B000706D527F038
:102620000DFDA0680121C907084302E0A068400031
:102630004008A0606879032801D0012808D1954896
:10264000817B027B4B002100280001F032FE33E049
:102650001198002803D08F48007B03F0D4EC03F0DE
:10266000D6EC0590089800280DD10E98002807D0C8
:10267000210008AB884A187F683103F0CCEC02E0F7
:102680000599682001558548416A05984000A430A5
:10269000085A8349884203D07E48807B002802D1B3
:1026A000A08800280AD07B480599807B43006820D9
:1026B000025D200001F0E0FD002884D0149800287D
:1026C00009D12879002802D0687903281CD102F0AA
:1026D000BFFF002818D06F48C088DF2802D13721FB
:1026E000692001556F48002FA08005D008AB187FE6
:1026F00000F038FA00F050FA0E98012804D0E06893
:102700000E2103F08CECE060A088002803D031009B
:10271000200002F066FF4098F06341983064F08931
:1027200060820898012821D15A48C088ED2A48A41F
:1027300001000000B4250000000200005B46538346
:10274000E628207802D18021084301E04006400EAF
:1027500008AB20705549187F03F06EEC6820005DCF
:10276000564A001FC30018184001115C491C11543F
:102770002088308441987022210003F062EC87E0C9
:102780001498002813D028003AF007FB318D7F22DF
:102790004006D200800D914301433185F069A021AC
:1027A0008843012109030843F06101200990B089A1
:1027B00020820798002800D0E066308D8005400E0A
:1027C000A070E06D80780009082810D1449803F0CB
:1027D000C0EB35490122C988E62900D000220092C9
:1027E000020030ABDB7C2100300003F02EEC0E98B1
:1027F000012810D13249334815F037FB08AB2B497B
:10280000187F03F01AECA068012149070843A06073
:102810000A20307009E02A492A48C94315F025FBEF
:102820003200210028000AF0C7F9320021002800F8
:1028300002F00CFE2449234815F017FB2148A1683B
:1028400015F013FB200060304290017A1D4815F00E
:102850000CFB2088308441987022210003F0F0EBBB
:102860000E9800280CD0419901940091429808AB31
:10287000027A1B7F0E992800FFF7B8F900280AD0CA
:102880000998002804D1BC4202D101208037387653
:102890001398FFF775F93F980821084216D006F003
:1028A0009DFA1FE0A0000004980A0004A80A000492
:1028B000C0060004FFFF0000FF7F0000580800046E
:1028C00077777777BBBBBBBB999999996A4803F037
:1028D00090EB002804D1694803F08AEB002801D06E
:1028E000042101730028139000D093E4002D06D03A
:1028F0000F20800128188068032135F071FF60499E
:1029000000200870FFF7F5FBF8B504000D00170074
:10291000001F01283ED85B4A201F012156698140D3
:10292000314237D0C100584A09184901535C002B85
:1029300001D05B1E5354102383403342475446BC9E
:1029400001000000B027000000020000AFAEED3E25
:1029500005D0505C002802D1012012F02DFA002D84
:1029600022D0286900281FD04D4A0020142141435D
:10297000535C002B19D08918C978A14215D12C6855
:102980004849E46D8200248B51182409641CCA1C38
:102990008B1C0C80002111701978002904D10106CC
:1029A000090E380026F0D0FAF8BD401C0228DDDB05
:1029B000F8BDF8B5040008003B4D0699AF88002625
:1029C0003C195F68012916D1EB88020021009E3274
:1029D000E62B09D00379012B06D04079022801D1DA
:1029E000891D02E0062B00D11100380012300622AA
:1029F00003F0B4EA05E000922B4923003A0000F00E
:102A000055F8E888E62800D00C263000F8BD70B5EF
:102A10000D002548244900784978002400280CD16D
:102A200001F04FFB0400007901282DD1280001F0AE
:102A30008FFB002828D0040026E0012801D00228BE
:102A400022D101F03EFB04001ED0607902281BD188
:102A50002878C0070BD0200001F0FEFA002813D020
:102A6000092189014018406A00280DD10BE0280097
:102A700001F06EFB040001F014FB002C04D0603068
:102A80000078032800D00024200070BDBC0D000495
:102A9000A80D0004A000000450AE04005808000473
:102AA000A80A0004AC000004980A0004FFB583B033
:102AB000040016000F00911C0C98002202911300D4
:102AC00069460CC10122F979BB7909021943E92948
:102AD00000D00022797BC907C90F03F0C4EA0500C2
:102AE000F879B97900020843EA2803D1797B0822F2
:102AF000114379733B210901621823792100224F88
:102B00009E31012B08D10B000699300003F0AEEA8C
:102B100026E00120000327E06379022B15D1069BF4
:102B20000A0006999B1D300003F0A0EA0120400234
:102B30000543B079C00718D10221200044F07EF887
:102B4000012812D1400305430FE0E6287433913F7A
:102B500001000000AC2900000002000068B7EF632C
:102B600001D10B0000E0069B300003F08AEAFF2051
:102B7000401C0543386800790028D4D105430298E9
:102B80000622058030001A30694603F0F2E907B0EA
:102B9000F0BD0248006800797047000000BA0400E8
:102BA00010B50400FDF76AFE384A01215368A140C0
:102BB00019435160FDF767FE0120800212F006F90B
:102BC00010BD3249032010B548600120800212F088
:102BD000FDF810BD70B5FDF751FE2D4D2B4E0021B7
:102BE0000C007268D30704D0A4234B435B198033D5
:102BF0001C765208491C02297260F2D3FDF743FE8D
:102C000070BDA4235843224940187047F7B505000A
:102C100000261F4F3400A4206043C0198030017E7D
:102C200001291CD16978027D914218D12978827DD1
:102C3000914214D1297B427D914210D1C17D00295E
:102C400009D000694321C900411801980622FDF707
:102C500022FB002803D102980126047002E0641CC4
:102C6000022CD8D33000FEBD30B51C00A42358433D
:102C7000074B4D78C018030080331D750D789D7586
:102C80001A61097B5975DC7530BD0000A400000491
:102C9000C00B0004FFB581B0050000201E4C286069
:102CA000206A0E001700002817D0FDF7E7FD216A03
:102CB000002910D00A79022A0DD1096A00290AD008
:102CC0002960216A09683160216A496A3960216A8C
:102CD0000A6B04990A60FDF7D6FD05B0F0BDF0B5AA
:102CE00087B006000F00002504AA05A906A803ABBB
:102CF000FFF7D0FF069C002C0AD0049A0192330003
:102D00000022009705981100A047002800D0012557
:102D1000280007B0F0BD0000D80105004021018166
:102D20007047F8B50024160025000028009424D12F
:102D30003000694600F0DCF804000CD06B461A88BD
:102D4000642A04D3E188032003F09EE902E0032013
:102D500003F09EE960816B461888002828801A24B9
:102D600001000000A82B0000000200009C5F51DE63
:102D700005D0402020811888001FA08007E0002C8B
:102D800005D031002000A580FDF728FF0024200099
:102D9000F8BD70B50C000026012B2DD01C4D042B66
:102DA00004D00F2B31D11B48210013E000F071FC3F
:102DB000002804D0022001F0B1F93DF005FE208981
:102DC0000019C179827908021043E52805D011481D
:102DD0002100143803F06AE908E00E482100283089
:102DE00003F064E90C480168491C01602868072267
:102DF0000121FEF707FC08E006482100143003F02B
:102E000056E96069022106F035FC300070BD000013
:102E100058AE0400BC0D0004C8AE0400002801DD5B
:102E2000002004E06521C943884200DA08004042DE
:102E3000000600167047662801DD662002E00028C3
:102E400000DA00200006001670470000F8B5040004
:102E500032D025002035287DE77EC006860F200071
:102E6000143003F094E80002000A002E0DD0012E69
:102E70000FD0022E01D0032E0FD10106CA0F41063A
:102E8000490E100003F016E908E0380003F016E9D7
:102E900004E0380003F016E900E0FF20E076287D2A
:102EA000C006810F0B20205615F05AFAE072072059
:102EB000205615F039FAE071F8BD2B4810B5C169FC
:102EC00044690A05120DD308006ADB00E318040503
:102ED000240DA24205D1012212031140104081426B
:102EE0000ED1586821490068000C884208D020495A
:102EF0000868401C0860002010F0C6FD002010BDCE
:102F0000012010BDF8B50D0007001A4800260E80FC
:102F1000006B1549000C1431C860FFF7CEFF002884
:102F200020D00320694603F0D2E804001AD04022E2
:102F30002100380003F026E838002660FFF786FFFE
:102F40006B461988E1802661022120002173390037
:102F500040304031060003F04EE83088001D2880E4
:102F60002000F8BD0020F8BD940E0004F5E4934560
:102F700001000000A42D00000002000085A78FAE14
:102F8000EFBE0000D4C701C0C0A30080F1B561202E
:102F9000C04384B00027039002900499B800401801
:102FA0000D2189014018846A002C7ED06078217838
:102FB00006020F200E4380010640F6D00520C00116
:102FC000064208D00398623005D1049836F089F89B
:102FD000000400140390FF204130064208D00298FC
:102FE000623005D1049836F073F8000400140290A2
:102FF0000025300614D53021095D039A0120914245
:1030000000DD0020802100912300220001000498AF
:103010005E33303201971EF08FFC002800D08025EF
:10302000B00517D53C210A5D039901208A4200DAD8
:103030000020012149020091230022000100049890
:103040005F333C3201971EF077FC002802D001204C
:1030500040020543700616D52A21095D029A012017
:103060004942914200DD00204021009123002200CE
:10307000010004985C332A3201971EF05DFC0028A1
:1030800001D040200543F00518D53621095D029A8C
:1030900001204942914200DA0020FF262300761CDD
:1030A0005D3322003632010000E017E004980197FA
:1030B00000961EF041FC002800D03543002D0DD0B5
:1030C000002F0BD104981B21490140188189294305
:1030D000818101210498C90606F0D6FA7F1C3F06BB
:1030E0003F0E012F00D258E705B0F0BDF3B5002424
:1030F0000500260081B0A0000D214019890140186B
:10310000806A00284BD041780278090211434907B0
:1031100045D50299096900290CD101006031330AB3
:103120004E708B70C07C0A000121002800D0010085
:10313000117034E0010060318A784B7812021A4332
:10314000521C1204120C130A4A708B700B78002B5D
:1031500025D0877CBA4222D35B1E1A06120E0A7053
:103160001DD1320A4E708A70C27C002A01D00A70CA
:1031700008E041780278090211430422D7054D285E
:1031800001000000A02F000000020000714F311369
:1031900091430170090A4170002C0AD11B204001A3
:1031A000281881890422114381815106280006F0E4
:1031B00075FA641C2406240E012CA6D3FEBD4349D7
:1031C000C868401CC8607047F0B51D001FB40020DF
:1031D000C04384B00090019004980D2189014018EB
:1031E000846A002C42D060782178000208434005B0
:1031F000002700283ADA02F082EF069A0E002B0030
:10320000121A8B41029005D2069A02983100801A58
:10321000A94107E0069A00980199801A029AA941EB
:1032200080187141060020000D004A3002F0C2EE05
:103230002B00321ABB411BD3244EF088401C0504DE
:103240002D0C20004E30F58002F0B4EEA8420DD8CF
:10325000F78004981B2149014018818901229202BC
:10326000114381810498510406F018FA09B0F0BDA9
:103270001648C780FAE70D229201801810B5846ABB
:10328000002C1FD06078227800021043400519D529
:10329000487D02F038EF4034E179A2790B02134304
:1032A0000A49002298420ED88888401C0004000C6D
:1032B0008880637A247A1B022343834202D8012048
:1032C00008818A8010BD0A81FBE70000B800000475
:1032D000F8B504000020060000900D000127200032
:1032E00000F0E2FEA879C00704D1002C04D0607A77
:1032F000C00620D50020F8BD28002BF05BFD00287B
:10330000009023D000981FF0DBF9040004D10320C3
:1033100000F0DAFE040019D02079022804D1200040
:1033200015F0AFFE002811D0207903280BD1607969
:1033300000280BD007E0200034F07AFC002801D0F0
:10334000022700E00127287BC00701D001261FE0EB
:103350002079290038F04CF8B84219D901260727FE
:10336000032800D0062760790C35022805D13A00E1
:103370002900200019F00EFB0AE0009802F0C6EECA
:10338000002805D13A002900200000237E8BBC2EA6
:10339000010000009C310000000200000F5496A3C1
:1033A00002F0C2EE3000F8BD70B5050000F086FEF8
:1033B0000400280000F0A7FE0100C6684C30027D22
:1033C00028000C318030012A0AD90B7D0722D20156
:1033D000012B02D1A218926A07E0A218526A04E0F7
:1033E000012A03D1C27E5200521C0A60818B084818
:1033F00002F09EEEB0420AD3280016F027F900280A
:1034000005D004480022415B280016F093FF70BDF0
:10341000881300001E02000070B5050000F073FE66
:103420000400280000F04AFE112201005201891810
:1034300049880C340020012903D1A16F012900D152
:10344000012070BD10B589780A07930F022B04D1B3
:103450000B09042B08D00C2B06D0920F02D10909BE
:10346000052901D043F0A6FB10BDF3B583B00600DB
:1034700037000089002581190120019004980291EC
:103480002BF00CFD0090049800F018FE0299CC6D12
:10349000A1780A07930F05D10909052902D1002057
:1034A000019060E0A179C90721D0CD2189004018A1
:1034B00000680028F3D0E078C009F0D1900F09D15E
:1034C0000498310015F0A4FF06000ED0A078000784
:1034D000800F04D0300016F0F1F8002805D10498D0
:1034E000310016F077F900283DD001253DE0009825
:1034F000007D0128D3D104984323DB000622A11DBF
:10350000C018FCF7F0FE0028C9D1A0780107890F88
:1035100013D100090C2806D1049816F009F8A078F8
:103520000007800F09D10498310015F071FF0600E3
:10353000DBD0A0780007800F04D0300016F0BEF872
:103540000028D2D10498310016F044F900280AD09E
:10355000012500F0BCF8002807D0022000F0FCFD97
:103560003DF050FA01E0BE4224D0002F18D0A078E0
:103570000007800F07D00298049A6030007A00217B
:10358000FFF7FEF908E0002D06D0029A049821000A
:1035900016F042FE002803D000213800A358553908
:1035A000010000009833000000020000FBBC281E50
:1035B000FDF785F9002D07D0002E05D0BE4203D0BF
:1035C00000213000FDF77BF9019805B0F0BD10B582
:1035D0002BF06EFC0021603001734173817310BDCC
:1035E000F8B50D0006001700FDF77AF90400002E6B
:1035F00024D030002BF05CFC6921495D312916D0C4
:1036000032291BD16030017B012917D1417B002970
:1036100004D0491E0906090E41730FD1012F0AD1AA
:1036200028784107490F300016F0F6FB06E030001D
:10363000FFF7CDFF02E00021017381732000FDF749
:1036400054F9F8BDF3B581B00E0001982BF030FCB1
:1036500004003820805D45076D0F280002F022ED40
:1036600001000198002830D001980722D20180186B
:10367000C06A002829D0200060300700007B0128A4
:1036800023D0206F16F085FB00281ED0207D012856
:103690001BD13000403002F0A2ECC178C90614D52D
:1036A00080780107890F02290FD1000900070CD586
:1036B00001203873A17FC80703D00198002207F0CA
:1036C00020FA0198290016F0A7FBFEBD1E480068ED
:1036D00070471D480068002801D101207047002074
:1036E000704710B540F0B1F9002805D0FFF7F1FFA1
:1036F000002801D0012010BD002010BD10B540F001
:103700009FF9002805D0FFF7E4FF002801D0012031
:1037100010BD002010BD10B50400FDF71FFF0028EC
:1037200005D1052C05D100F0BFF8002801D00020FC
:1037300010BD08F0D1FD002803D10448006B00281B
:10374000F6D0012010BD000078B104008013000401
:10375000154810B50068002816D1144800220068EA
:10376000462102F044EC00280ED111490A78002AC3
:1037700002D00870162005E00E490A78002A03D00E
:1037800008701B203FF042FC10BD10B50A4CA08809
:10379000002807D0FDF7E2FE002803D033F0A6FD95
:1037A0000020A08010BD000038B104001896775C9E
:1037B000010000009435000000020000E244F66EB3
:1037C000D0AC0400D1B00400D2B0040098B1040021
:1037D0003649374A800009581258914201D20120D7
:1037E0007047334A121F1268002A06D0304A10323E
:1037F0001058814201D2022070470020704770B5F6
:103800002C4A0169914201D0002070BD2749C07B3C
:1038100010310C5CFDF76EF8A100244B244C5A5873
:103820006458A24204D9224D2D1F2C68641C2C60C0
:10383000521E5A50FDF763F8E6E7FFB581B0002449
:1038400006001F001B48864206D0039A02993000EA
:1038500002F086EC05B0F0BDFDF74CF800903800A2
:10386000FFF7B6FF05001CD0039A0299300002F062
:1038700078EC040015D00D49E07B10310F54B800EE
:1038800010390A58521C0A50607B012108436073AA
:103890000948022DA06104D10549091F0868401E8E
:1038A00008600098FDF72BF82000D3E7A867000414
:1038B000800200042C010004D335000001488089F7
:1038C00070470000B8B10400F0B591B000272DF0AA
:1038D00047FAFF4D2C69FE4840300668300706D590
:1038E00006F0FEFAFA490820C04340310860301E55
:1038F000F84E17DA14202DF0C5FBF748C06B0028EE
:103900000CD0B068401CB060402011F09BFAF04829
:103910004030416849004908416003E0EC49EF4804
:1039200040310860EE4920000840EE49097808431C
:10393000716A08437062FFF7D6FE002817D0706ADC
:10394000002814D1E848002200681B2102F058EB3F
:10395000716A08437062706A002808D1E248002248
:103960000068082102F04CEB716A0843706202F0B3
:10397000FCEBE00101D5DD48286120060CD5DC48D0
:103980000168491C016008F0B1FC002802D0042045
:1039900011F058FA3CF0D6FAA00301D5D5482861B9
:1039A000002C07DAD448072200680221FDF75CFEEC
:1039B000CA482861200502D5D048012796760CC751
:1039C00001000000903700000002000016AC48D350
:1039D0002861D048610110907ED5002002900190AE
:1039E00006AA07A90BA805AB39F096FA00280390A0
:1039F00011D00220074300068443C0432861079882
:103A00000C3000F0F5FB0028019004D103900699DA
:103A1000079802F0B8EB40F027F8002806D0BE491E
:103A20000020C861BC49202040310860039800286C
:103A30007ED0FFF777FE00280AD0B848806C0028B7
:103A400004D101210198890305F050FE14F058FCBF
:103A5000019802F09CEB00286BD0019800790128B6
:103A600029D1079900294ED0019812311FF010FC7E
:103A7000002848D01099002002F0F8EA9B48C0388E
:103A8000806BA64900200865B06A00283BD1A44895
:103A90000068401C37D001210198890205F026FEFC
:103AA0000120B06201980F2189014018806804212B
:103AB00034F0F0FE27E0002019F030F902903FF0DA
:103AC000D8FF00281DD001983FF0BCFC009002F008
:103AD0003EEB009AFF3200E0DDE0521C0F92D16114
:103AE000906106990F9A4B68086853626B461062A2
:103AF0009A8A0C310C3A052002F04CEB0F9A807830
:103B0000906241F0F1FE3FF07FFA0006000E049053
:103B10000B98C17E0A91C17A0991C1790891FFF78A
:103B2000D1F90B99019840F0D6FA0A990B9801E067
:103B3000AFE09EE0C1760999C1720899C1713FF06A
:103B40009DFF002872D0FFF7D8FD00286ED00298A4
:103B500000286BD00498002868D13FF08AFF002825
:103B600064D1FDF70FFD002803D12AF0A5FB002842
:103B70005CD0F069012807D06A480088002851D03D
:103B80006948008800284DD06B469A8A06990C3AFD
:103B90000C31052002F0FEEA010001983AF0D0FF56
:103BA000009062480068002806D002F02CEA02214A
:103BB00008430099084233D15048002200681B2175
:103BC00002F028EA00282BD1019810F0EF31FD5ABD
:103BD000010000008C39000000020000D1B54A8EBF
:103BE00084FC002826D1574802F016EA00990842C2
:103BF00020D15248008800281CD053490098084220
:103C000018D16B469A8A0699019802F0D2EA0028E8
:103C100010D00220874319F085F8052002F0CCEA85
:103C20000004000C052102F0CCEA0198012105F006
:103C300067FD01E001203062002070620DE0FFE7C7
:103C4000F069012807D03C480088002805D03B488F
:103C50000088002801D001203062019805F08CF91D
:103C6000002814D00498002811D0FFF750FD002838
:103C70000AD033F03BFF002806D134F059F8002871
:103C800002D10120306202E0082011F0EFF8306A22
:103C9000012808D10020F0612849088002208743CC
:103CA00003203FF0D1F92948286120017ED52868FA
:103CB000800705D5002101201EF0A2FC0B900BE02F
:103CC0002868C00773D030781EF0B6FC0B9015F052
:103CD0000AFA0028F6D00B980028F3D00B98803011
:103CE000406B406820300A900B9835F0EBFC0A9846
:103CF000807AC00760D02BE000A50080F4B10400FA
:103D0000C0A80080FFFFFF7F80880000A0000004A3
:103D1000D0AC0400FFFFFFFEE4B00400FFFFFDFF96
:103D2000C4B30400FFF7FFFF9E74000400A60080E8
:103D300068E303C0F0B10400EC060500ACB1040078
:103D4000ECAC040098B004000B800000FFFFFFFB08
:103D50000B98407902282FD10B9815F0C4F901284F
:103D60002AD10B9800F0D2F99121890009904018CE
:103D700008902030007900281ED0089A0899253232
:103D80000B982D310E9202F020EA0998406C002821
:103D900012D008990E9A0B982E313BF0F3F909983E
:103DA000132149014018807D800701E08BE04EE03F
:103DB00002D50B9810F0A1FB0A98807A800746D5AF
:103DC0003FF05CFE002806D0C4490020C861C3490A
:103DD00020204031086014F0D7FAC148268A98C2E2
:103DE00001000000883B000000020000255DF43364
:103DF000806B0C9014F0E6F90B9802F0F4E90B9844
:103E000002F0F4E900282CD0BB4800680D90401C5B
:103E100027D0109802F00AE90C994018109902F086
:103E20003AE90100342805D1B06A002802D0B34A2B
:103E30000120106508000D99884212D3B06A00284D
:103E40000FD01099002002F026E901210B984902B9
:103E500005F060FC0020B06202F0CCE9A749002028
:103E60000865FFF766FC002835D0022000F0A6F9AF
:103E700009903FF0FBFA0890099800F051F907907B
:103E800009983FF0E5FA069007203FF0E7F89848D8
:103E90000169026A0698008802281CD1002901D015
:103EA000012A18D10898C030007E002813D1069846
:103EB0004068C00707D00798092189014018406A67
:103EC000002808D104E0FF2011F052F8002802D0A9
:103ED00013203FF0C3F88A482861A00101D5894822
:103EE0002861002F05D08848072200683900FDF7B7
:103EF000D9FBE0007ED53FF0CBFD002807D00121A3
:103F00004904002005F006FC7C480021816420F073
:103F10000BFB002801D020F0E9F82868C0076DD01D
:103F20007A48806A0006000E30701EF08FFB070092
:103F300040D0FFF7FEFB002810D038003FF088FA91
:103F40007249496B327801239340194201D0002114
:103F500000E00121817006203FF080F83800A03099
:103F6000017B491C0906090E0173C27A91427ED178
:103F700000210173817A0029F9D16449496BC27C1F
:103F800001239340FF22521C1343604A194351639B
:103F9000797902290ED15649C07C40318860544855
:103FA0000169006A012901D0012803D101213800EB
:103FB00015F0E2FC3879032820D138001EF024FDEA
:103FC0000B907879022807D10B982030807B8007EE
:103FD00002D5380012F022FB0B98806900050DD540
:103FE0000821380002F00AE90B9801218DF98D9A19
:103FF00001000000843D0000000200003CA52A43AF
:104000008069C902884301E004E001E00B998861FE
:1040100044482861E0020DD501201FF063F9002813
:1040200006D03B49012088648103002005F07CFB19
:104030003D482861E00702D00120C0432861A00765
:104040000DD57068401C7060102010F023FF022016
:10405000C04328610120C0038443C0432861200479
:1040600005D53248072200680121FDF725FB6007CE
:1040700005D5F068401CF0600420C043286120078B
:1040800000E022E005D53069401C30610820C043C3
:104090002861E00605D57069401C70611020C0439E
:1040A0002861A00605D5B069401CB0612020C0433E
:1040B0002861F069002801D12CF04EFE1C49886867
:1040C0004A0D1043886011B0F0BD154B586B317824
:1040D00001228A409043D90D0843586374E770B5B4
:1040E00004000D00102017F00FF8002807D1104928
:1040F00001208002C86029002000FFF70DFC01208C
:1041000070BD000000A6008000A80080F0B104008F
:1041100068E303C0FFFFFFF7FFFFFFFDB8B0040037
:10412000C0A20080FFFFFFEFFFFFEFFFC4B304005A
:104130000028008001000020002906D00F230A7902
:104140009B01C918022A01D108697047032AFCD1D2
:104150008869704770B50500FCF7F4FB78494C6836
:1041600007E02179A94203D1FCF7F1FB200070BDE3
:104170002468002CF5D1FCF7EAFB002070BD00217B
:1041800000280AD00279022A02D13D21090103E068
:10419000032A02D17B21C90041180800704770B57D
:1041A00005000E00FCF7CEFB65494C680AE0A179DA
:1041B000A94206D1E179B14203D1FCF7C8FB200046
:1041C00070BD2468002CF2D1FCF7C1FB002070BD4B
:1041D0005B49022801D108697047C868704710B56B
:1041E000FCF7B0FB5649496807E04A7AD20603D586
:1041F000FCF7ADFB012010BD096800296F1F704D51
:1042000001000000803F000000020000C84D94FE45
:10421000F5D1FCF7A6FB002010BD2030407DC00684
:10422000C00F704710B5040002F000E80F218901AB
:10423000611808621F21002049016118087110BD32
:10424000F8B50700FCF788FB0600424843254468A0
:10425000ED000CE0062239006019FCF78AF800280E
:1042600004D13000FCF77DFB2000F8BD2468002C51
:10427000F0D13000FCF775FB0020F8BDF8B5050063
:104280000F00FCF769FB06003248446810E0207913
:10429000A8420CD12000062239009E30FCF769F8B4
:1042A000002804D13000FCF75CFB2000F8BD246836
:1042B000002CECD13000FCF754FB0020F8BD70B5A9
:1042C00005004078002801D1002070BDFCF744FBB8
:1042D00006002048446814E02079012810D19A2073
:1042E0006A78005D82420BD12000A91C7A30FCF76D
:1042F00040F8002804D13000FCF733FB200070BDEB
:104300002468002CE8D13000FCF72BFBDCE770B50B
:10431000FCF722FB05000F48446800E02468002CED
:1043200009D0200001F086EF0128F7D12800FCF722
:1043300018FB012070BD2800FCF713FB002070BDA6
:104340000978C90701D000207047407A0007C00FE4
:1043500070470000A0020004002805D00F21890149
:104360004018C068002801D10020704700787047CD
:1043700003000A0000B5FFF7EFFF002807D00F2069
:1043800080011818C16860205043AC30085C00BD43
:1043900030B59200954C656A954C1219146B042245
:1043A000825E002A08D149004919A03189888B42D0
:1043B00004D2C91A818003E0002A01DA002030BD4E
:1043C0008188091B8180012030BDF8B58446012019
:1043D00000900C001F0000266046FFF7BDFF25007F
:1043E0006035002803D060460079012802D1002002
:1043F00028722BE0FF2A26D00F21602389015A431F
:10440000604640181100C068A931AB32A032A588BF
:10441000010000007C410000000200002D1AC9F9D3
:10442000415C865C76484A00406AA432805A764AEB
:10443000904201D0002F02D1A088002810D03B006C
:1044400032002000FFF7AEFF002809D1A178012239
:10445000604601F0FEEE0020F8BD00200090F8BD9F
:104460002E720098F8BDF3B58DB00C0000260D68D3
:104470003021E86D0C901435684601F042EE2000C2
:1044800069463FF00BFE00246F4617E00D98FFF7DA
:104490006DFF0C9903000A88E96920000904090CE2
:1044A00001F0DAEE8619E869210002040D98120C79
:1044B00006F09EFD8619385D401E3855385D00288F
:1044C000E4D1641C2406240E2F2CF7D330000FB047
:1044D000F0BDF8B504000F2208686023C56D060022
:1044E000007892014007400F5843A118C968B230C4
:1044F000085C143683009A18891814F041FB0700F1
:10450000232000012018416BCC300B5CF0692A8815
:1045100001041800090C012301F09EEE010038008F
:104520004843F8BDF3B581B00E000D68EC6D01F0A5
:1045300040EE0198FFF71AFF00283ED001980F21A6
:1045400089014018C168306860230078228B4007D9
:10455000400F584312094018A030477A0282A078D1
:1045600000092AD0082801D00C2826D1142078432D
:1045700044182079000720D5A868800004D5019848
:104580003100FFF7A6FF03E001983100FFF76BFF52
:10459000218AC002000C00290FD0227D002A0CD1F4
:1045A000628A10180004000C8842608205D901203C
:1045B00020750198390045F0AFFFFEBD03000A00E9
:1045C00000B5FFF7D3FE002807D00F208001181890
:1045D000C16860205043AE30085A00BD03000A0095
:1045E00000B5FFF7C3FE002809D00F20800118187E
:1045F00060235A43C168AE32885A431C8B5200BDB7
:10460000C006000480A20080FFFF000010B501F08A
:1046100028EE10BDFFB5E1B005000026CFDC4DB39C
:10462000010000007843000000020000D9F2774446
:1046300040685C9006205B965A90FCA0389605C8AE
:104640000D960C9636923590088940180A90486964
:104650000B90FFF78DFD09902C686A981434E628BA
:1046600000D15A96002010900F900E9060688079CB
:10467000C107F0480B9904D00818C06800280FD073
:1046800003E008180069002806D06C99083008601B
:1046900060688079C00703D10B98007AC0070CD0FE
:1046A0006C980068002808D10B98007A40077ED4E7
:1046B0000B982030407D0007F9D4280008305AAA12
:1046C00035A96B46609007C30DAA5C996A9808AB40
:1046D00001F0D4ED02006398002102606C9800683C
:1046E000002803D0837ADB0700D0012163689E791C
:1046F000F30703D10B9B1B7A9B072CD5649B032BE1
:1047000029D00B9B20335B7D1B07DB0F109322D13D
:104710000B9B1B7A5F070CD5C379012B01D10127B5
:1047200000E000270F970127022B00D000270E97EB
:1047300011E0DB0604D5002902D001230C930AE026
:104740000B9B1B79012B06D1002904D0C379022BC6
:1047500001D101230E930B9F012320377F7D3F075B
:1047600007D4002904D0002802D0807A800700D422
:1047700000236498032811D0002A06D10B98007AF0
:1047800080070BD4F0073FD008E0002B06D00020B4
:10479000010010900E900F906C9801600C9800280A
:1047A0000AD063980068002806D0002000E02BE0C3
:1047B00001000C906C98016037AA38A90192009111
:1047C0000C9B0E9A0F99109801F05CED0C98002844
:1047D00006D030AB587F801C5877187F801C187724
:1047E0000E990F9808430C990843109908430ED06E
:1047F00060684022C1781143C1706C98006800283D
:1048000002D0807AC00702D1002065B0F0BD6A985E
:10481000E62802D06B98002801D001200DE00B980B
:104820005A9AA030C0885B9000922E89420DD9EA36
:10483000010000007445000000020000C00AA93415
:1048400030AB1A7F6D9933005BA801F02AEDA87296
:10485000E069C00502D50120A8722DE0A87A0128E0
:1048600027D960680422C1781143C1707748007964
:10487000C0060AD40B98407902281AD1099813214E
:1048800049014018007B000713D5208D8005400E9C
:1048900003280ED96D494031897D490609D438F085
:1048A00005FB4006218D800D7F22D20091430143FC
:1048B0002185A87A012812D108AB197D5C9830AB0C
:1048C00040185A99401A597F401A20380A9980088E
:1048D0008000703188425D9006D25D9104E00A98B4
:1048E0007030800880005D905D985E9011A850AB9C
:1048F000E860998D08AB187D5CAA04AE07C637A99D
:10490000609A5A9801AE07C65DAA0092A87A4AAA90
:1049100011A93AAB01F0C8EC0C9800280AD000208D
:104920003AAA04E0810053589B1E401C5350A97AB8
:104930008142F7D8A97AE868491E01F0BAEC5A9A80
:10494000002A05D0E86835A98068801A01F09CEB40
:1049500067684A9860606A98E6280FD06B980128CB
:104960000CD03A98BA1D01040B98090C00F0EBFD2D
:10497000002803D0E06901F0A0ECE061E0690121CA
:10498000890288430026E06101E10F99002907D0E0
:10499000401EB04204D1B0003AA90A5808320A5069
:1049A000B0003AA95F9008580204120C3A80A87A25
:1049B000401EB0424FD1F878FB210840F870E06902
:1049C000810701D01E2100E01821091D511809049A
:1049D000090C61846D9A002A01D0891C618441050B
:1049E00008D50204208D120C8005410E0B9806F0AC
:1049F00013FBB880E06981060FD56D9A00925F992C
:104A00003AAA5158BB880A040104208D120C800573
:104A1000090C400E06F058FB1BE0010618D56D9AF4
:104A200000925F993AAA5158BB880A040104208D6C
:104A3000120C8005090C400E01F042EC13795E5215
:104A400001000000704700000002000034E21789F6
:104A500009E00000AAAA03000000000040030000D3
:104A6000427400040020E0814AE0E069410510D56D
:104A70006D9A00925F993AAA891849680204208DBC
:104A80000B048005410E0B981B0C120C06F019FB51
:104A9000B880002E34D1E069810616D50204208D3D
:104AA000120C8005410E0B9806F0C0FA03006D9AB7
:104AB0003A9800920204E069120C0104208D090C5E
:104AC0008005400E06F00AFB19E0010616D5020427
:104AD000208D120C8005410E0B9806F0A7FA0300FA
:104AE0006D9A3A9800920204E069120C0104208D3C
:104AF000090C8005400E01F0EEEB00E00020A081E3
:104B0000288A4AA900090001304338835F9820228F
:104B10000858390001F0C2EA38AB1878012809D1E9
:104B20006C983AA902685F984AAB0958185801F086
:104B3000D6EB35E0022833D15F984AA9095839915C
:104B40003AA9085830AB197F401A39990004000C73
:104B50000880A97A491EB14202D1399908380880E3
:104B60000B98407902280BD139988079C00707D07B
:104B700009980721C9014018408803061B0E00E070
:104B800000236C98E97A02683998FFF75DFDA87AEE
:104B9000401EB04204D13998399900880830088005
:104BA000761CA87AB04200D9F9E66E9800280AD09F
:104BB0006E9830AB597F80304176997F81760E991F
:104BC000C1610C9901625E9833E6FFB58BB00500B8
:104BD00040680990062008904A48169F03C880370D
:104BE0000690002007910590F86904903E6A012024
:104BF000A8722C6814981434E62801D1002008907B
:104C00000C980D21890140180069002802D01599DF
:104C1000083008602800083008AA06A96B4607C3B8
:104C200005AA0999149803AB01F03CEB0D99020019
:104C30000860159800210068002803D0837ADB07FC
:104C400000D001210C9B8C4620335B7DB9A69FF3DD
:104C5000010000006C49000000020000F3FB15D4C5
:104C600001211B0708D46346002B04D0002802D082
:104C7000807A800700D400210E9803280DD0002AE6
:104C800006D10C98007A800707D400200FB0F0BD41
:104C9000002902D0159900200860002E06D00D983A
:104CA0000068002802D0159800260660049830435A
:104CB00004D060684022C1781143C170797EBA7E09
:104CC00028898918089A6B4610180D18197D0998BB
:104CD0004018801A002A0A9003D00A9806A901F009
:104CE000E8E9797E0A98401A203861680700002EAA
:104CF000606000D0AD1E0D801E35E3692A04120CE1
:104D00009B0702D0921D1204120C6284202201F033
:104D1000D0E93800BAE7000074470000F0B500267B
:104D2000B5B01C961B960022D243FD480092006944
:104D30000822032134ABFCF7EFFC34980028F2D0B2
:104D400080072BD568461A9023E0062001F084EAFC
:104D50000004000C062101F084EA1A9C20000C30AB
:104D6000FFF7A0FA05002100FEF734FB012810D060
:104D7000002D0ED0A0780007800F012809D12A6BE2
:104D80000AA9002A02D02800904702E0280029F052
:104D90005FFD0AA838F040F90028D6D13498C00742
:104DA000C1D09CE21D981F9F4469FBF707FE0500D8
:104DB000002F06D01D9800F014FB002801D0012020
:104DC00000E000201E902800FBF7FDFD012020AB35
:104DD0003390587D2399000208431D99FD6D488149
:104DE0001E9800285FD0002C02D1FBF7E7FDFEE7FC
:104DF0001F9920001FAA20F06FFE012803D11D98E3
:104E000000F0D6FA6BE22398002807D1A8780007B3
:104E1000800F022802D1200024F0ECF9207901282B
:104E200006D1F86D8079C00702D12000FFF72CFA77
:104E3000A879C0071BD16079022818D11F990122D7
:104E40002000FEF73BFCA8780007800F022805D160
:104E50002398002802D12000FEF71EFB51E6363CC5
:104E600001000000684B0000000200000713AB695E
:104E70002000FEF753FB002803D029002000FEF796
:104E800063FBFEF7A6FC002817D01F986030407A1D
:104E9000142812D0152810D035280ED023980028B9
:104EA0000BD1A8780107890F02D10009052804D089
:104EB0000220FFF7D3F93BF027FEB86800011BD5AD
:104EC000239800280CD1002C16D00D20800120182A
:104ED000406A002810D06030818B491C81830BE030
:104EE000002C09D00D2080012018406A002803D032
:104EF0006030C18B491CC183B86880001E984DD5B5
:104F000000284AD01FF060FB002801D01FF042FAB1
:104F10001F9822006030007A1FA9FDF7B3FDFEF74D
:104F200050FC00281BD0E878C006C00F401E20436C
:104F30000AD12079012807D032F0E4FF002803D1FC
:104F400032F08CFF00280AD07B480168491C0160C0
:104F50003BF04CFDB868002801DA3EF02FFA21F052
:104F600099FE32F07BFF00280FD032F03BFF002883
:104F70000BD172480078002807D0714800680328D8
:104F800003D2002120003BF023F81D980021FBF7FD
:104F90000EFD20001FA901F0BAE9A4E100287ED08F
:104FA0001FA824F069FE002C00D02079B8680028E2
:104FB00001DA3EF003FA1FF007FB002805D0682055
:104FC000C05D072801D81FF0E5F9A87801078A0F0E
:104FD000022A72D120001FA9FEF71EF91F98220095
:104FE0006030007A1FA9FDF74DFD20001FA93FF09A
:104FF000DEF854498872000AC87220001FA901F027
:1050000086E920001FA9FEF7C2F96079032801D0C4
:10501000012803D120001FA9FFF7B6FAFEF7D1FB44
:10502000002813D0E878C0060AD52079012807D0D7
:1050300032F068FF002803D132F010FF002805D0BD
:105040003D490868401C08603BF0D0FC21F022FE7E
:1050500032F004FF00280FD032F0C4FE00280BD13C
:1050600036480078002807D035480068A76B8C398F
:1050700001000000644D0000000200001EEB7519E5
:10508000032803D2002120003AF0ACFFFEF7ABFB6F
:10509000002820D01F986030407A14281BD12000AF
:1050A0003EF030FA23990088002911D1022803D15B
:1050B00000E01EE113260EE020003EF031FA06006B
:1050C00001F0B2E88036F164B0641E2603E080E0AF
:1050D000022800D01F26A8780009042801D00C2837
:1050E00029D16037787A13284CD015DC102839D0B4
:1050F000112820D012281ED1239800281BD11FF080
:105100007DFF002817D0E878C00614D501F08CE8A0
:10511000124A516510650EE0152823D0162838D0A4
:10512000352808D12398002805D00D480122015BBD
:10513000200015F08BF91F986030407A30282CD170
:105140001D9829F023FED8E0B4B30400E8B00400B1
:10515000D3B00400F0B004009274000440130004C3
:105160001E02000023980028E87805D1C00601D56A
:105170000E26E0E70D26DEE7C00601D51126DAE7A8
:105180001026D8E72398002801D12F26D3E7302610
:10519000D1E723981FF076FACDE7372805D11D997E
:1051A00020000EF0D3FD0028CDD1A87800090428F6
:1051B00006D00C2804D01F986030407A5A2803D1BA
:1051C0001D9800F072EF98E01B991D98FBF7F9FB12
:1051D00093E0890F49D1617902291DD11F9A2900D5
:1051E000200015F0A5F83390A87800090D2836D1D5
:1051F000239801273900002800D000211D9823F0B2
:10520000A3FDA87800090D2829D12079032826D1EB
:1052100039001EE000211FE0030901F086E80E209E
:105220002020202020202020082020200D200020C9
:10523000339012F021FF12E0239801252900002865
:1052400000D000211D9823F07FFD2079032806D18E
:10525000290023980028DDD11D9801F06AE800207C
:10526000349033980028ABD147E0012A45D100099A
:10527000082838D00A2802D00E28A1D03E2574B9BB
:1052800001000000604F000000020000EA03CBA410
:105290003DE0FBF7B1FB050020F0E2FD374A107856
:1052A000002809D036498868401C88600020010029
:1052B000107020003AF0A0FE1D9800F000EF239837
:1052C000002814D01C980A2811D20FF05BFE002889
:1052D0000DD11C98401C0006000E1C901FF0B0FE63
:1052E000002806D1012120003AF086FE01E00020CE
:1052F0001C902800FBF785FB09E0290020001FAA6D
:105300002FF040FF66E71E490868401C0860002E29
:1053100003D030003DF006FF00261FA800F0C5F9BD
:1053200000281D9000D05BE51FF062F9002811D025
:105330001FF096FE002807D01FF054F9114A536958
:105340001269121A8B4103D321F048FB002801D0C7
:105350001EF0B6FF0D490C4808610D48016940690F
:10536000814200D1FDE4064807224168491C4160A2
:1053700000690121FCF7FAF9F3E400000AAE040029
:10538000B4B3040098F90400FF7FFFFF00A500807C
:1053900000A0008010B5040005F014FC002801D125
:1053A000012200E00022002A16D1294B2069E17B6E
:1053B000984201D100200DE0264B984201D14020B7
:1053C00008E0254B984201D1472003E0234B984247
:1053D00002D14C20FF2905D15020002A01D0012103
:1053E00000E0002140180006000E10BDF8B50500D1
:1053F000FFF7D0FF1A49C00044182068194E002852
:1054000003D0B088401CB080F8BD68462560FBF72B
:10541000FCFA009860603078401C3070F8BD10B520
:105420000400FFF7B7FF0E49C000401802680D499D
:10543000A24204D0C888401CC880002010BD0022B1
:1054400013000CC00878401E0870012010BD000039
:105450002C01000468010004F80100044802000463
:1054600058700004C8B30400F0B594465A681D682B
:1054700014062E06240E360EB44203D22700F83747
:10548000B74205D9B44205D93200083247FB9BFC2C
:10549000010000005C5100000002000094186C1430
:1054A000944201D80020F0BDCC4A09021268314371
:1054B000114308602D1DE805C00D6146090408432D
:1054C00018600120F0BDD9E7F8B504000F00160000
:1054D000FBF79CFA1437002C00900CD0607902285E
:1054E00009D0FDF71EFC0100380000F03AEFBC497E
:1054F0000A6880180860BB48B4000559092E18DCFA
:10550000B9480159002914D0B8490959012908D1CD
:1055100002E0300038F044F8B34800590028F8D1D0
:1055200007E000210151B04850300059C105C90DB4
:105530002960AE48005901280CD1788C0421091A41
:105540008907890F0A18121D2B0031003800FFF758
:1055500095FF1AE01FF056F8002809D01FF08AFDC9
:10556000002805D0082E03D1310038001FF0B8F90B
:1055700000222B0031003800FFF780FF002804D103
:105580000098FBF748FA0020F8BD0098FBF743FAB3
:105590000120F8BDC03010B5027C0100407C824281
:1055A00001D3100010BD887CC97C8842FAD200F07B
:1055B000DCEE002801D1032010BD092010BD70B51C
:1055C000040010780D001100C00719D120790128BE
:1055D00002D06079022803D12000FEF70BFF02E021
:1055E0002000FEF713FF0006000E01D01E2000E091
:1055F0001C20A034A1882818884201D9012070BD40
:10560000002070BDF8B505001400D0698F78C00483
:1056100007D488688000C10F28000EF0B1F8E0625E
:10562000F8BD3900280029F0F6FC0606360E0020E9
:10563000002E02D1280023F0C5F803006C48390081
:1056400000798006C20F00923200200000F090EE38
:105650001D2040012818007EC10701D18007DFD539
:10566000208D20348005410E207AC007C00F42F003
:1056700045FC0028A07A02D04021084301E0BF2168
:105680000840A072F8BD70B504000089061920001A
:10569000FFF7B6FE3500603508E02000BFD7144F95
:1056A00001000000585300000002000060F0D2A981
:1056B000FFF7C9FE012007F0FAFE2000FFF7AAFE5F
:1056C0002A7A60693100FFF709FF0028EFD0012036
:1056D00070BDFEB50121040000202161060020609C
:1056E000FBF79EF901904248016802694769D005BD
:1056F000FA05C00DD20D90425ED03806000E084368
:105700000D21090208430568002D50D050212000CA
:1057100000F050ED286C2060C16D060089781C3EB9
:105720000907890F71690091E96961606A88D20788
:10573000D20F22618068800039D42878207368787D
:105740006073C80415D5288D8005420E28002030CE
:105750000290007A4107C007C90FC00F00F016EE93
:10576000207560750298807A0007000FA0750020F0
:1057700000E0E86AA0606888C00714D12061216851
:10578000012012F07FFE0098002810D02068C06D24
:1057900080780007800F022809D16B692A69009878
:1057A000FDF7C6FD03E02168002012F06BFE3F1DEF
:1057B0000F49F805C00D48610198FBF736F9300034
:1057C000FEBD38B504000D0000F04CED042220664B
:1057D000A25E0092020028000B0000F0DCEDA08821
:1057E000002804D068880121C9030843688038BDB7
:1057F00000A00080ECB00400F4020004A0CE03C0BE
:10580000700B00044274000402000021012010B556
:1058100000F0CCEC054A1368526818400023114090
:1058200059405840084300D0012010BD30BE04004C
:105830000748807C002808D1054800234038C16E05
:10584000806E59405840084300D001207047000046
:1058500000330500F8B505000024FE4F012806D1ED
:105860007D21FD480022090100F010ED0EE0022D1F
:1058700031D1B888800702D5398A002202E0F74882
:1058800000220188F6480023FEF76DF8040022D0BC
:105890000820F04E2073AC20183E022D208111D13B
:1058A000B888800703D521003A8AAC315C928FE337
:1058B00001000000545500000002000079080CD9D6
:1058C00003E0EB4821000288AC3128000FF030FEE5
:1058D000B068401CB06008E02100E74AAC31280005
:1058E0000FF026FEF068401CF0602000F8BD70B597
:1058F0000025DD4C183C25806068002802D000F0AF
:1059000058ED6560D84CA088C00703D00121022063
:105910000FF0BAFCA088800703D5002102200FF009
:10592000B3FC002070BD38B504200090FBF782F86E
:10593000D24C050020680022442100F002EC2068CF
:1059400014216A4600F0FCEB2800FBF778F838BD1C
:1059500010B5FDF7F4FFCA4810BD70B50024C24D64
:10596000C849183D122202206C600FF0EFFD2C8018
:1059700070BDF8B50400BC4DA889002831D06889F5
:1059800001282ED92F00183F7868002803D000F096
:1059900010ED002078603888401C0604360C3E80EC
:1059A0006889B04209D82989200000F076EC0029E6
:1059B00000D1A41C0020388013E02F89200039007A
:1059C00000F06AEC002901D0781A0419002E08D0E2
:1059D000A54B00220092AA89AB480021143B00F09D
:1059E000ECEC2000F8BD70B506000C0058D0022B7E
:1059F00058D0032B0ED0052B52D120202518208102
:105A0000E878A9780002084317D12000FBF74AF88C
:105A1000012070BD2089002204199C48251F2860A0
:105A20004421300000F08CEBE078A17800020843BC
:105A3000001D0204120C29004AE0FDF7DFFF0028D8
:105A400004D09348210000F004EC29E086492C00A2
:105A5000183908690022401C08614421300000F018
:105A600070EB8148A9788088C007E8780AD00002E6
:105A7000084369792A790906091411434018FFF788
:105A800078FF07E00002084369792A7909060914BA
:105A9000114340180204120C210002200FF056FDA1
:105AA000002070BD208900220019C17A0400807A8C
:105AB00009020143C91C774808348D08B4B0324E3E
:105AC0000100000050570000000200008DE0B264A9
:105AD0002060AD004421300000F03CEB08352A0482
